:020000040800F2
:1000000000000220C50A0008390A0008450A000855
:100010004D0A0008550A00085D0A000800000000AB
:10002000000000000000000000000000650A000859
:10003000730A000800000000810A00088F0A000807
:10004000150B0008150B0008150B0008150B000810
:10005000150B0008150B0008150B0008150B000800
:10006000150B0008150B0008150B0008150B0008F0
:10007000150B0008150B00089D0A0008B10A0008BE
:10008000150B0008150B0008150B000800000000F8
:10009000000000000000000000000000150B000838
:1000A000150B0008150B0008150B0008150B0008B0
:1000B000150B0008150B0008150B0008150B0008A0
:1000C000150B0008150B0008150B0008150B000890
:1000D000150B0008150B0008150B000800000000A8
:1000E000150B0008150B0008150B00080000000098
:1000F000000000000000000000000000150B0008D8
:1001000000000000150B0008150B0008150B000877
:1001100000000000000000000000000000000000DF
:10012000150B0008150B0008150B0008150B00082F
:10013000150B000800000000000000000000000097
:10014000000000000000000000000000150B000887
:10015000150B0008150B0008150B0008150B0008FF
:10016000150B0008150B000800000000000000003F
:10017000000000000000000000000000000000007F
:1001800000000000150B0008000000000000000047
:08019000150B0008150B000817
:1001980010B5054C237833B9044B13B10448AFF3B9
:1001A80000800123237010BD2400002000000000FF
:1001B800A866000808B5034B1BB103490348AFF311
:1001C800008008BD0000000028000020A866000884
:1001D80053B94AB9002908BF00281CBF4FF0FF31A6
:1001E8004FF0FF3000F06AB9ADF1080C6DE904CEAC
:1001F80000F006F8DDF804E0DDE9022304B07047FA
:100208002DE9F047089D0C46002B4ED194468C45AD
:100218008646B2FA82F262D94AB1C2F1200391400D
:1002280020FA03F30CFA02FC194300FA02FE4FEA23
:100238001C471FFA8CF6B1FBF7F44FEA1E4307FB85
:10024800141143EA014304FB06F199420AD91CEB55
:10025800030304F1FF3080F01281994240F20F81CC
:10026800023C6344591A1FFA8EF3B1FBF7F007FBFF
:10027800101143EA014300FB06F69E420AD91CEB23
:10028800030300F1FF3180F0FC809E4240F2F980C8
:10029800634402389B1B40EA044000211DB1D3404F
:1002A8000022C5E90032BDE8F0878B4205D90DB1BF
:1002B800C5E9000100210846F5E7B3FA83F10029F2
:1002C80046D1A34202D39042C0F0F080861A64EB74
:1002D80003030120002DE6D0C5E90063E3E7002A07
:1002E80040F09080A1EB0C044FEA1C481FFA8CF7F1
:1002F8000121B4FBF8F64FEA1E4308FB164443EA13
:10030800044307FB06F0984208D91CEB030306F1E7
:10031800FF3402D2984200F2CD8026461C1A1FFAFA
:100328008EF3B4FBF8F008FB104443EA044300FBE7
:1003380007F79F4208D91CEB030300F1FF3402D2F0
:100348009F4200F2B0802046DB1B40EA0640A5E74A
:10035800C1F120068B4022FA06F71F4320FA06FC5B
:1003680004FA01F343EA0C03F44000FA01F8380CEC
:100378004FEA1349B4FBF0FE1FFA87FC00FB1E444A
:1003880049EA04440EFB0CF9A14502FA01F20AD924
:100398003C190EF1FF3A80F08480A14540F281803B
:1003A800AEF1020E3C44A4EB09041FFA83F9B4FB36
:1003B800F0F300FB134449EA044403FB0CFCA44596
:1003C80007D93C1903F1FF3067D2A44565D9023B30
:1003D8003C4443EA0E40A0FB0293A4EB0C049C426D
:1003E800CE469C4651D34ED055B1B8EB0E0364EBC4
:1003F8000C0404FA06F6CB401E43CC40C5E9006461
:10040800002150E7C2F1200320FA03F10CFA02FCA4
:1004180024FA03F394400C434FEA1C4800FA02FE06
:100428001FFA8CF7B3FBF8F008FB1031230C43EAF2
:10043800014300FB07F1994208D91CEB030300F1C3
:10044800FF362CD299422AD9023863445B1AA4B2E7
:10045800B3FBF8F108FB113344EA034401FB07F34B
:10046800A34208D91CEB040401F1FF3613D2A342BE
:1004780011D902396444E41A41EA004139E70446D3
:10048800F0E6084606E7C845AED2B9EB020E63EBC4
:10049800070C0138A8E73146EDE7034699E73046EF
:1004A800D4E7D6467FE7634402384DE7064623463D
:1004B80008460FE7023E634430E700BF704700BFBD
:1004C800B0B5ADF5167D00AF00F034FB00F09AF83A
:1004D80000F060F900F036F900F0FEF802F0BAFA20
:1004E80007F51673A3F51373414A1C4615460FCD3D
:1004F8000FC495E8030084E8030007F51673A3F515
:1005080014730A221A7000223A493B4805F054F93C
:100518000346002B09D02021384801F030FA4FF467
:10052800FA7000F079FB00BFF5E707F12403022217
:100538003349184605F086F9034687F8573297F885
:100548005732002B09D020212C4801F018FA4FF41B
:10055800FA7000F061FB00BFF5E707F51673A3F525
:100568000D73DA6807F124031146184605F041FDBA
:10057800034687F8573207F51673A3F50D73DB6842
:10058800002B15D03B1D07F1080107F124000122BB
:1005980005F012FB034687F857323B1D07F10C01A3
:1005A80007F12400182205F007FB034687F85732A5
:1005B80007F51673A3F50D73DB68002B0AD13B1DF5
:1005C80007F10C0107F12400182205F0F5FA03469B
:1005D80087F8573207F12403184605F0E0FC20217C
:1005E800064801F0CCF9642000F016FB00BFF6E7DE
:1005F800CC66000860010020640100200000024071
:10060800C066000880B594B000AF07F1200330221F
:100618000021184606F018F807F10C0300221A60AA
:100628005A609A60DA601A610023BB60284B1B6C21
:10063800274A43F080531364254B1B6C03F0805307
:10064800BB60BB6800237B60224B1B68214A43F4D4
:10065800404313601F4B1B6803F440437B607B6877
:1006680001233B624FF480337B620223BB634FF468
:100678008003FB6319233B64A8237B640223BB64C8
:100688000423FB6407F12003184601F093F903469D
:10069800002B01D000F0F2F80F23FB6002233B612E
:1006A80000237B614FF48053BB610023FB6107F19A
:1006B8000C030221184601F0F5FB0346002B01D07C
:1006C80000F0DCF801F0D4FC00BF5037BD4680BD17
:1006D800003802400070004080B500AF174B184A40
:1006E8001A60164B4FF482725A60144B00229A60BB
:1006F800124B0022DA60114B00221A610F4B0022C4
:100708005A610E4B4FF400729A610C4B3022DA6139
:100718000A4B00221A62094B00225A62074B002238
:100728009A62064B0A22DA62044801F08EFD0346FB
:10073800002B01D000F0A2F800BF80BD40000020CF
:100748000038004080B582B000AF00237B60104BBA
:100758001B6B0F4A43F4001313630D4B1B6B03F41D
:1007680000137B607B68002200210E2000F053FB01
:100778000E2000F06CFB002200210F2000F04BFB44
:100788000F2000F064FB00BF0837BD4680BD00BFE6
:100798000038024080B58AB000AF07F11403002288
:1007A8001A605A609A60DA601A6100233B61304B24
:1007B8001B6B2F4A43F0800313632D4B1B6B03F015
:1007C80080033B613B690023FB60294B1B6B284A74
:1007D80043F001031363264B1B6B03F00103FB601B
:1007E800FB680023BB60224B1B6B214A43F00403C8
:1007F80013631F4B1B6B03F00403BB60BB68002330
:100808007B601B4B1B6B1A4A43F002031363184BA4
:100818001B6B03F002037B607B68002220211548D4
:1008280001F094F800221021134801F08FF82023DA
:100838007B610123BB610023FB6100233B6207F15D
:10084800140319460B4800F0FDFE10237B610123B9
:10085800BB610023FB6100233B6207F114031946C7
:10086800054800F0EFFE00BF2837BD4680BD00BF39
:1008780000380240000002400008024080B400AF87
:1008880072B600BF00BFFDE780B483B000AF00239D
:100898007B60104B5B6C0F4A43F4804353640D4BF1
:1008A8005B6C03F480437B607B6800233B60094BEF
:1008B8001B6C084A43F080531364064B1B6C03F00F
:1008C80080533B603B6800BF0C37BD465DF8047B36
:1008D800704700BF0038024080B58AB000AF78602A
:1008E80007F1140300221A605A609A60DA601A61EC
:1008F8007B681B68474A934240F0878000233B612E
:10090800454B1B6C444A43F480431364424B1B6CB5
:1009180003F480433B613B690023FB603E4B1B6B48
:100928003D4A43F0020313633B4B1B6B03F0020386
:10093800FB60FB684FF460437B610223BB610023CB
:10094800FB6103233B6205237B6207F1140319460D
:10095800324800F077FE324B324A1A60304B0022A0
:100968005A602F4B00229A602D4B0022DA602C4BE4
:100978004FF480621A612A4B00225A61284B0022E8
:100988009A61274B0022DA61254B00221A62244B18
:1009980000225A62224800F075FA0346002B01D063
:1009A800FFF76CFF7B681E4ADA641D4A7B68936315
:1009B8001D4B1E4A1A601C4B00225A601A4B4022DB
:1009C8009A60194B0022DA60174B4FF480621A6163
:1009D800154B00225A61144B00229A61124B0022D7
:1009E800DA61114B00221A620F4B00225A620E483C
:1009F80000F048FA0346002B01D0FFF73FFF7B6861
:100A0800094A9A64084A7B68936300BF2837BD4641
:100A180080BD00BF0038004000380240000402409A
:100A28009800002058600240F800002070600240E2
:100A380080B500AF01F0EEFB00BFFDE780B400AF6A
:100A480000BFFDE780B400AF00BFFDE780B400AF92
:100A580000BFFDE780B400AF00BFFDE780B400AF82
:100A680000BFBD465DF8047B704780B400AF00BF8F
:100A7800BD465DF8047B704780B400AF00BFBD463B
:100A88005DF8047B704780B500AF00F0A5F800BFA3
:100A980080BD000080B500AF024800F069FB00BFD0
:100AA80080BD00BF9800002080B500AF024800F06C
:100AB8005FFB00BF80BD00BFF8000020DFF834D026
:100AC80000F026F80C480D490D4A002302E0D458DE
:100AD800C4500433C4188C42F9D30A4A0A4C002380
:100AE80001E013600432A242FBD305F0B5FDFFF725
:100AF800E7FC7047000002200000002024000020CE
:100B0800946B00082400002000060020FEE7000087
:100B180080B400AF064BD3F88830054A43F470031D
:100B2800C2F8883000BFBD465DF8047B704700BF3F
:100B380000ED00E080B500AF0E4B1B680D4A43F492
:100B4800007313600B4B1B680A4A43F480631360FD
:100B5800084B1B68074A43F480731360032000F0B6
:100B68004FF90F2000F008F8FFF78EFE0023184613
:100B780080BD00BF003C024080B582B000AF786005
:100B8800124B1A68124B1B7819464FF47A73B3FB51
:100B9800F1F3B2FBF3F3184600F067F90346002BB4
:100BA80001D001230EE07B680F2B0AD80022796858
:100BB8004FF0FF3000F02FF9064A7B6813600023DE
:100BC80000E0012318460837BD4680BD000000201C
:100BD800080000200400002080B400AF064B1B78FA
:100BE8001A46064B1B681344044A136000BFBD46EF
:100BF8005DF8047B704700BF080000205801002002
:100C080080B400AF034B1B681846BD465DF8047BF3
:100C1800704700BF5801002080B584B000AF7860ED
:100C2800FFF7EEFFB8607B68FB60FB68B3F1FF3F3E
:100C380005D00A4B1B781A46FB681344FB6000BFBB
:100C4800FFF7DEFF0246BB68D31AFA689A42F7D864
:100C580000BF00BF1037BD4680BD00BF08000020A0
:100C680080B485B000AF78607B6803F00703FB6051
:100C78000C4BDB68BB60BA684FF6FF031340BB60E0
:100C8800FB681A02BB68134343F0BF6343F40033A5
:100C9800BB60044ABB68D36000BF1437BD465DF82B
:100CA800047B704700ED00E080B400AF044BDB68C4
:100CB8001B0A03F007031846BD465DF8047B70471E
:100CC80000ED00E080B483B000AF0346FB7197F9F4
:100CD8000730002B0BDBFB7903F01F02074997F95C
:100CE80007305B09012000FA02F241F8232000BF17
:100CF8000C37BD465DF8047B704700BF00E100E09B
:100D080080B483B000AF03463960FB7197F90730B0
:100D1800002B0ADB3B68DAB20C4997F9073012015D
:100D2800D2B20B4483F800230AE03B68DAB20849E0
:100D3800FB7903F00F03043B1201D2B20B441A767D
:100D480000BF0C37BD465DF8047B704700E100E04A
:100D580000ED00E080B489B000AFF860B9607A6057
:100D6800FB6803F00703FB61FB69C3F10703042B6E
:100D780028BF0423BB61FB690433062B02D9FB6936
:100D8800033B00E000237B614FF0FF32BB6902FAAE
:100D980003F3DA43BB681A407B699A404FF0FF318E
:100DA8007B6901FA03F3D9437B680B401343184668
:100DB8002437BD465DF8047B7047000080B582B0DB
:100DC80000AF78607B68013BB3F1807F01D30123DA
:100DD8000FE00A4A7B68013B53600F214FF0FF3058
:100DE800FFF78EFF054B00229A60044B07221A601A
:100DF800002318460837BD4680BD00BF10E000E05C
:100E080080B582B000AF78607868FFF729FF00BF2F
:100E18000837BD4680BD80B586B000AF0346B960CF
:100E28007A60FB7300237B61FFF73EFF78617A6885
:100E3800B9687869FFF78EFF024697F90F301146B7
:100E48001846FFF75DFF00BF1837BD4680BD80B567
:100E580082B000AF0346FB7197F907301846FFF7D9
:100E680031FF00BF0837BD4680BD80B582B000AFF6
:100E780078607868FFF7A2FF034618460837BD4632
:100E880080BD000080B586B000AF786000237B612C
:100E9800FFF7B6FE38617B68002B01D1012399E08A
:100EA8007B68022283F835207B68002283F834208F
:100EB8007B681B681A687B681B6822F001021A604D
:100EC8000FE0FFF79DFE02463B69D31A052B08D9B0
:100ED8007B6820225A657B68032283F83520032328
:100EE80078E07B681B681B6803F00103002BE8D1DE
:100EF8007B681B681B687B617A69384B13407B6190
:100F08007B685A687B689B681A437B68DB681A436E
:100F18007B681B691A437B685B691A437B689B691A
:100F28001A437B68DB691A437B681B6A13437A6937
:100F380013437B617B685B6A042B07D17B68DA6AA1
:100F48007B681B6B13437A6913437B617B681B685F
:100F58007A691A607B681B685B697B617B6923F02F
:100F680007037B617B685B6A7A6913437B617B68F3
:100F78005B6A042B17D17B689B6A7A6913437B6190
:100F88007B68DB6A002B0ED0786800F0DFFA034636
:100F9800002B08D07B6840225A657B68012283F8C1
:100FA8003520012316E07B681B687A695A617868E6
:100FB80000F096FA0346FB607B68DB6D3F229A409F
:100FC800FB689A607B6800225A657B68012283F877
:100FD8003520002318461837BD4680BD3F8010F0E5
:100FE80080B586B000AFF860B9607A603B600023D6
:100FF800FB75FB689B6D3B61FB6893F83430012BF4
:1010080001D1022340E0FB68012283F83420FB6809
:1010180093F83530DBB2012B2FD1FB68022283F81D
:101028003520FB6800225A653B687A68B968F86819
:1010380000F028FAFB68DB6D3F229A403B699A6012
:10104800FB681B681A68FB681B6842F016021A6086
:10105800FB681B6C002B07D0FB681B681A68FB68D1
:101068001B6842F008021A60FB681B681A68FB6874
:101078001B6842F001021A6005E0FB68002283F851
:1010880034200223FB75FB7D18461837BD4680BD0A
:1010980080B584B000AF78607B689B6DFB60FFF71C
:1010A800AFFDB8607B6893F83530DBB2022B08D00F
:1010B8007B6880225A657B68002283F834200123EC
:1010C80052E07B681B681A687B681B6822F016026E
:1010D8001A607B681B685A697B681B6822F080026B
:1010E8005A617B681B6C002B03D17B689B6C002BBF
:1010F80007D07B681B681A687B681B6822F00802A7
:101108001A607B681B681A687B681B6822F00102FA
:101118001A6013E0FFF774FD0246BB68D31A052B6B
:101128000CD97B6820225A657B68032283F8352016
:101138007B68002283F83420032315E07B681B6852
:101148001B6803F00103002BE4D17B68DB6D3F22B1
:101158009A40FB689A607B68012283F835207B6897
:10116800002283F83420002318461037BD4680BD7E
:1011780080B586B000AF78600023BB608E4B1B68DB
:101188008E4AA2FB03239B0A7B617B689B6D3B61B4
:101198003B691B68FB607B68DB6D08229A40FB6833
:1011A8001340002B1AD07B681B681B6803F00403EC
:1011B800002B13D07B681B681A687B681B6822F0B9
:1011C80004021A607B68DB6D08229A403B699A60CA
:1011D8007B685B6D43F001027B685A657B68DB6D59
:1011E80001229A40FB681340002B12D07B681B68D1
:1011F8005B6903F08003002B0BD07B68DB6D012259
:101208009A403B699A607B685B6D43F002027B6899
:101218005A657B68DB6D04229A40FB681340002BFB
:1012280012D07B681B681B6803F00203002B0BD0ED
:101238007B68DB6D04229A403B699A607B685B6D32
:1012480043F004027B685A657B68DB6D10229A4084
:10125800FB681340002B43D07B681B681B6803F0B6
:101268000803002B3CD07B68DB6D10229A403B6959
:101278009A607B681B681B6803F48023002B18D0D6
:101288007B681B681B6803F40023002B08D17B686C
:101298001B6C002B24D07B681B6C786898471FE078
:1012A8007B689B6C002B1BD07B689B6C786898478D
:1012B80016E07B681B681B6803F48073002B07D15A
:1012C8007B681B681A687B681B6822F008021A6032
:1012D8007B681B6C002B03D07B681B6C7868984775
:1012E8007B68DB6D20229A40FB681340002B00F0DE
:1012F8008F807B681B681B6803F01003002B00F0CD
:1013080087807B68DB6D20229A403B699A607B6806
:1013180093F83530DBB2052B36D17B681B681A6829
:101328007B681B6822F016021A607B681B685A6982
:101338007B681B6822F080025A617B681B6C002B5B
:1013480003D17B689B6C002B07D07B681B681A68ED
:101358007B681B6822F008021A607B68DB6D3F22FD
:101368009A403B699A607B68012283F835207B6844
:10137800002283F834207B681B6D002B7ED07B68AD
:101388001B6D7868984779E07B681B681B6803F4D5
:101398008023002B1DD07B681B681B6803F4002387
:1013A800002B0DD17B685B6C002B31D07B685B6CAC
:1013B800786898472CE000BF00000020B5814E1BDC
:1013C8007B68DB6B002B23D07B68DB6B78689847E6
:1013D8001EE07B681B681B6803F48073002B0FD129
:1013E8007B681B681A687B681B6822F010021A6009
:1013F8007B68012283F835207B68002283F834203B
:101408007B68DB6B002B03D07B68DB6B78689847C5
:101418007B685B6D002B32D07B685B6D03F001034A
:10142800002B22D07B68052283F835207B681B6857
:101438001A687B681B6822F001021A60BB680133D6
:10144800BB607A699A4207D37B681B681B6803F004
:101458000103002BF2D100E000BF7B68012283F872
:1014680035207B68002283F834207B68DB6C002BF6
:1014780005D07B68DB6C7868984700E000BF1837B8
:10148800BD4680BD80B485B000AFF860B9607A60B1
:101498003B60FB681B681A68FB681B6822F48022A3
:1014A8001A60FB681B683A685A60FB689B68402BA7
:1014B80008D1FB681B687A689A60FB681B68BA6881
:1014C800DA6007E0FB681B68BA689A60FB681B680B
:1014D8007A68DA6000BF1437BD465DF8047B704750
:1014E80080B485B000AF78607B681B68DBB2103BC6
:1014F800144AA2FB03231B09FB60134AFB6813442D
:101508001B781A467B68DA65FB68032B09D97B6868
:101518001B6823F47F7323F003031A1D7B689A6505
:1015280007E07B681B6823F47F7323F003037A6862
:1015380093657B689B6D18461437BD465DF8047B40
:10154800704700BFABAAAAAA3C67000880B485B060
:1015580000AF78600023FB737B689B6ABB607B6885
:101568009B69002B1FD1BB68032B56D801A252F8E8
:1015780023F000BF8D1500089F1500088D15000881
:10158800231600087B68DB6A03F08073002B46D0C3
:101598000123FB7343E07B68DB6AB3F1C07F40D172
:1015A8000123FB733DE07B689B69B3F5005F21D1A4
:1015B800BB68032B37D801A252F823F0D5150008D1
:1015C800DB150008D5150008ED1500080123FB738D
:1015D80030E07B68DB6A03F08073002B25D00123A1
:1015E800FB7322E07B68DB6AB3F1C07F1FD1012364
:1015F800FB731CE0BB68022B03D9BB68032B03D029
:1016080018E00123FB7315E07B68DB6A03F0807345
:10161800002B0ED00123FB730BE000BF0AE000BFD4
:1016280008E000BF06E000BF04E000BF02E000BF22
:1016380000E000BFFB7B18461437BD465DF8047B0D
:10164800704700BF80B489B000AF7860396000236C
:101658007B6100233B610023BB610023FB6159E1EF
:101668000122FB6902FA03F37B613B681B687A6914
:1016780013403B613A697B699A4240F048813B6874
:101688005B6803F00303012B05D03B685B6803F03C
:101698000303022B30D17B689B68BB61FB695B004D
:1016A800032202FA03F3DB43BA691340BB613B68C8
:1016B800DA68FB695B0002FA03F3BA691343BB619A
:1016C8007B68BA699A607B685B68BB610122FB69C9
:1016D80002FA03F3DB43BA691340BB613B685B68FA
:1016E8001B0903F00102FB6902FA03F3BA69134309
:1016F800BB617B68BA695A603B685B6803F00303A7
:10170800032B17D07B68DB68BB61FB695B00032296
:1017180002FA03F3DB43BA691340BB613B689A687A
:10172800FB695B0002FA03F3BA691343BB617B6888
:10173800BA69DA603B685B6803F00303022B23D1C4
:10174800FB69DA087B68083253F82230BB61FB6911
:1017580003F007039B000F2202FA03F3DB43BA6985
:101768001340BB613B681A69FB6903F007039B00E0
:1017780002FA03F3BA691343BB61FB69DA087B68B1
:101788000832B96943F822107B681B68BB61FB69A2
:101798005B00032202FA03F3DB43BA691340BB611F
:1017A8003B685B6803F00302FB695B0002FA03F322
:1017B800BA691343BB617B68BA691A603B685B68A6
:1017C80003F44033002B00F0A2800023FB60574B4A
:1017D8005B6C564A43F480435364544B5B6C03F48C
:1017E8008043FB60FB68524AFB699B08023352F84E
:1017F8002330BB61FB6903F003039B000F2202FA4D
:1018080003F3DB43BA691340BB617B68494A9342DF
:1018180019D07B68484A934213D07B68474A934261
:101828000DD07B68464A934207D07B68454A93426D
:1018380001D1042308E0072306E0032304E0022380
:1018480002E0012300E00023FA6902F0030292009B
:101858009340BA691343BB613549FB699B0802335E
:10186800BA6941F82320384B9B68BB613B69DB436D
:10187800BA691340BB613B685B6803F48013002BB3
:1018880003D0BA693B691343BB612F4ABB699360B4
:101898002D4BDB68BB613B69DB43BA691340BB6115
:1018A8003B685B6803F40013002B03D0BA693B69FB
:1018B8001343BB61244ABB69D360234B5B68BB619C
:1018C8003B69DB43BA691340BB613B685B6803F45F
:1018D8000033002B03D0BA693B691343BB611A4A32
:1018E800BB695360184B1B68BB613B69DB43BA6932
:1018F8001340BB613B685B6803F48033002B03D063
:10190800BA693B691343BB610F4ABB691360FB6942
:101918000133FB61FB690F2B7FF6A2AE00BF00BF4E
:101928002437BD465DF8047B704700BF003802408D
:101938000038014000000240000402400008024054
:10194800000C024000100240003C014080B483B00B
:1019580000AF78600B467B8013467B707B78002B4A
:1019680003D07A887B689A6103E07B881A047B68D5
:101978009A6100BF0C37BD465DF8047B704780B4A0
:1019880085B000AF78600B467B807B685B69FB6045
:101998007A88FB6813401A04FB68D9437B880B409C
:1019A8001A437B689A6100BF1437BD465DF8047B13
:1019B8007047000080B586B000AF78607B68002B68
:1019C80001D1012367E27B681B6803F00103002B48
:1019D80075D0884B9B6803F00C03042B0CD0854B07
:1019E8009B6803F00C03082B12D1824B5B6803F44D
:1019F8008003B3F5800F0BD17E4B1B6803F40033D3
:101A0800002B5BD07B685B68002B57D1012342E237
:101A18007B685B68B3F5803F06D1764B1B68754AD7
:101A280043F4803313601DE07B685B68B3F5A02F37
:101A38000CD1704B1B686F4A43F4802313606D4BC5
:101A48001B686C4A43F4803313600BE0694B1B68D6
:101A5800684A23F480331360664B1B68654A23F495
:101A6800802313607B685B68002B13D0FFF7C8F8EE
:101A7800386108E0FFF7C4F802463B69D31A642BC3
:101A880001D9032307E25B4B1B6803F40033002BE7
:101A9800F0D014E0FFF7B4F8386108E0FFF7B0F8C9
:101AA80002463B69D31A642B01D90323F3E1514B56
:101AB8001B6803F40033002BF0D100E000BF7B6803
:101AC8001B6803F00203002B63D04A4B9B6803F0AA
:101AD8000C03002B0BD0474B9B6803F00C03082B1F
:101AE8001CD1444B5B6803F48003002B16D1414B97
:101AF8001B6803F00203002B05D07B68DB68012B11
:101B080001D00123C7E13B4B1B6823F0F8027B6837
:101B18001B69DB00374913430B603AE07B68DB68DD
:101B2800002B20D0344B01221A60FFF769F8386186
:101B380008E0FFF765F802463B69D31A022B01D982
:101B48000323A8E12B4B1B6803F00203002BF0D002
:101B5800284B1B6823F0F8027B681B69DB002549CA
:101B680013430B6015E0244B00221A60FFF748F876
:101B7800386108E0FFF744F802463B69D31A022BA4
:101B880001D9032387E11B4B1B6803F00203002BD9
:101B9800F0D17B681B6803F00803002B36D07B6804
:101BA8005B69002B16D0154B01221A60FFF728F845
:101BB800386108E0FFF724F802463B69D31A022B84
:101BC80001D9032367E10B4B5B6F03F00203002B82
:101BD800F0D01BE0094B00221A60FFF711F83861BA
:101BE8000EE0FFF70DF802463B69D31A022B07D91E
:101BF800032350E10038024000004742800E47426C
:101C0800884B5B6F03F00203002BEAD17B681B68EB
:101C180003F00403002B00F097800023FB75814B31
:101C28001B6C03F08053002B0FD10023BB607D4B4E
:101C38001B6C7C4A43F0805313647A4B1B6C03F093
:101C48008053BB60BB680123FB75774B1B6803F4AB
:101C58008073002B18D1744B1B68734A43F480734C
:101C68001360FEF7CDFF386108E0FEF7C9FF0246B2
:101C78003B69D31A022B01D903230CE16A4B1B6879
:101C880003F48073002BF0D07B689B68012B06D18E
:101C9800644B1B6F634A43F0010313671CE07B68C6
:101CA8009B68052B0CD15F4B1B6F5E4A43F0040306
:101CB80013675C4B1B6F5B4A43F0010313670BE030
:101CC800584B1B6F574A23F001031367554B1B6F83
:101CD800544A23F0040313677B689B68002B15D0D4
:101CE800FEF78EFF38610AE0FEF78AFF02463B697D
:101CF800D31A41F28832934201D90323CBE0494BEE
:101D08001B6F03F00203002BEED014E0FEF778FF00
:101D180038610AE0FEF774FF02463B69D31A41F2C4
:101D28008832934201D90323B5E03E4B1B6F03F081
:101D38000203002BEED1FB7D012B05D1394B1B6C27
:101D4800384A23F0805313647B689B69002B00F0AA
:101D5800A180344B9B6803F00C03082B5CD07B6894
:101D68009B69022B41D1314B00221A60FEF748FFD4
:101D7800386108E0FEF744FF02463B69D31A022B9C
:101D880001D9032387E0274B1B6803F00073002B5E
:101D9800F0D17B68DA697B681B6A1A437B685B6AE7
:101DA8009B011A437B689B6A5B08013B1B041A432F
:101DB8007B68DB6A1B061B4913434B601B4B0122E4
:101DC8001A60FEF71DFF386108E0FEF719FF0246AA
:101DD8003B69D31A022B01D903235CE0114B1B6822
:101DE80003F00073002BF0D054E0104B00221A606F
:101DF800FEF706FF386108E0FEF702FF02463B697E
:101E0800D31A022B01D9032345E0064B1B6803F0C4
:101E18000073002BF0D13DE07B689B69012B07D153
:101E2800012338E00038024000700040600047425B
:101E38001B4B5B68FB607B689B69012B28D0FB68A8
:101E480003F480027B68DB699A4221D1FB6803F0C6
:101E58003F027B681B6A9A421AD1FA6847F6C07338
:101E680013407A68526A9201934211D1FB6803F4D5
:101E780040327B689B6A5B08013B1B049A4207D18E
:101E8800FB6803F070627B68DB6A1B069A4201D02C
:101E9800012300E0002318461837BD4680BD00BF67
:101EA8000038024080B584B000AF786039607B6844
:101EB800002B01D10123CCE0684B1B6803F007031A
:101EC8003A689A420CD9654B3A68D2B21A70634B99
:101ED8001B6803F007033A689A4201D00123B8E06F
:101EE8007B681B6803F00203002B20D07B681B680B
:101EF80003F00403002B05D0594B9B68584A43F460
:101F0800E05393607B681B6803F00803002B05D03F
:101F1800534B9B68524A43F460439360504B9B6811
:101F280023F0F0027B689B684D4913438B607B6804
:101F38001B6803F00103002B44D07B685B68012B0E
:101F480007D1474B1B6803F40033002B19D1012339
:101F58007FE07B685B68022B03D07B685B68032BA0
:101F680007D13F4B1B6803F00073002B09D10123F5
:101F78006FE03B4B1B6803F00203002B01D10123E8
:101F880067E0374B9B6823F003027B685B68344942
:101F980013438B60FEF734FEF8600AE0FEF730FE6C
:101FA8000246FB68D31A41F28832934201D90323CF
:101FB8004FE02B4B9B6803F00C027B685B689B002F
:101FC8009A42EBD1254B1B6803F007033A689A4203
:101FD8000CD2224B3A68D2B21A70204B1B6803F01D
:101FE80007033A689A4201D0012332E07B681B68F4
:101FF80003F00403002B08D0194B9B6823F4E0522C
:102008007B68DB68164913438B607B681B6803F0A9
:102018000803002B09D0124B9B6823F460427B68AD
:102028001B69DB000E4913438B6000F02DF8024654
:102038000B4B9B681B0903F00F030A49CB5C22FA80
:1020480003F3094A1360094B1B681846FEF794FD11
:10205800002318461037BD4680BD00BF003C024033
:10206800003802402C67000800000020040000200F
:1020780080B400AF034B01221A6000BFBD465DF873
:10208800047B70474C0047422DE9B04F90B000AF39
:1020980000237B630023FB6300233B630023BB63B4
:1020A800594B9B6803F00C03082B0DD0082B00F24A
:1020B800A180002B02D0042B03D09BE0534BBB63C1
:1020C8009BE0534BBB6398E04F4B5B6803F03F03C7
:1020D8007B634D4B5B6803F48003002B28D04A4B8D
:1020E8005B689B0900223B627A623B6AC3F3080083
:1020F8000021474B03FB01F2002300FB03F31344C9
:10210800434AA0FB0212FA620A46BA62FA6A134408
:10211800FB627B6B0022BB61FA61D7E90623D7E932
:102128000A01FEF755F802460B461346FB6353E0D7
:10213800354B5B689B0900223B617A613B69C3F3BD
:10214800080A4FF0000B52465B464FF000004FF074
:102158000001590141EAD261500102460B46B2EB37
:102168000A0863EB0B094FF000024FF000034FEA37
:10217800891343EA98634FEA8812B2EB080463EBC9
:1021880009054FF000024FF00003EB0043EA5473D7
:10219800E20014461D4614EB0A033B6045EB0B03B3
:1021A8007B604FF000024FF00003D7E90045294655
:1021B8008B02214643EA915321468A02104619466A
:1021C8007B6B0022BB60FA60D7E90223FEF700F8B8
:1021D80002460B461346FB630B4B5B681B0C03F074
:1021E800030301335B003B63FA6B3B6BB2FBF3F316
:1021F800BB6302E0054BBB6300BFBB6B18464037AF
:10220800BD46BDE8B08F00BF003802400024F4008E
:1022180040787D0180B500AF064BDB6803F0800392
:10222800802B04D100F00AF8034B80221A7000BFFB
:1022380080BD00BF003802400E38024080B400AFB5
:1022480000BFBD465DF8047B704780B582B000AF23
:1022580078607B68002B01D101237BE07B685B6A97
:10226800002B08D17B685B68B3F5827F09D07B6857
:102278000022DA6105E07B6800221A617B6800228F
:102288005A617B6800229A627B6893F85130DBB20E
:10229800002B06D17B68002283F850207868FEF76F
:1022A8001BFB7B68022283F851207B681B681A6835
:1022B8007B681B6822F040021A607B685B6803F445
:1022C80082727B689B6803F404431A437B68DB686B
:1022D80003F400631A437B681B6903F002031A4383
:1022E8007B685B6903F001031A437B689B6903F40D
:1022F80000731A437B68DB6903F038031A437B6871
:102308001B6A03F0800342EA03017B689B6A03F4BB
:1023180000527B681B680A431A607B689B691B0C28
:1023280003F004017B685B6A03F010027B681B689A
:102338000A435A607B681B68DA697B681B6822F469
:102348000062DA617B6800225A657B68012283F8A3
:102358005120002318460837BD4680BD80B586B099
:1023680000AFF860B9607A607B800023FB75FB687A
:1023780093F85030012B01D10223DBE0FB680122E6
:1023880083F85020FB6893F85130BB75FB685B6895
:102398003B61BB7D012B0DD03B69B3F5827F06D134
:1023A800FB689B68002B02D1BB7D042B02D0022363
:1023B800FB75BAE0BB68002B05D07B68002B02D008
:1023C8007B88002B02D10123FB75AEE0FB6893F8F4
:1023D8005130DBB2042B03D0FB68052283F851206F
:1023E800FB6800225A65FB68BA681A63FB687A883A
:1023F8009A86FB687A88DA86FB687A689A63FB684B
:102408007A889A87FB687A88DA87FB6800221A64D8
:10241800FB6800225A64FB6893F85130DBB2042B46
:1024280008D1FB68DB6C454A1A64FB68DB6C444ADC
:10243800DA6307E0FB68DB6C424A1A64FB68DB6C12
:10244800414ADA63FB68DB6C404ADA64FB68DB6CA0
:1024580000221A65FB68D86CFB681B680C331946A8
:10246800FB689B6B1A46FB68DB8F9BB2FEF7B8FDD7
:102478000346002B08D0FB685B6D43F01002FB6835
:102488005A650123FB7550E0FB681B685A68FB68B6
:102498001B6842F001025A60FB689B6C00221A64B8
:1024A800FB689B6C0022DA63FB689B6C0022DA6491
:1024B800FB689B6C00221A65FB68986CFB681B6BB9
:1024C8001946FB681B680C331A46FB68DB8E9BB207
:1024D800FEF786FD0346002B08D0FB685B6D43F0D2
:1024E8001002FB685A650123FB751EE0FB681B6838
:1024F8001B6803F04003402B07D0FB681B681A6871
:10250800FB681B6842F040021A60FB681B685A6847
:10251800FB681B6842F020025A60FB681B685A6817
:10252800FB681B6842F002025A60FB68002283F8CD
:102538005020FB7D18461837BD4680BD5F27000830
:10254800272600087B270008CF26000897270008C1
:1025580080B584B000AF78600023FB737B689B6C08
:10256800002B0FD07B689B6C1846FEF791FD034645
:10257800002B07D07B685B6D43F010027B685A65BF
:102588000123FB737B68DB6C002B0FD07B68DB6C53
:102598001846FEF77DFD0346002B07D07B685B6D70
:1025A80043F010027B685A650123FB737B681B6844
:1025B8005A687B681B6822F003025A607B68012214
:1025C80083F85120FB7B18461037BD4680BD80B488
:1025D80083B000AF786000BF0C37BD465DF8047B60
:1025E800704780B483B000AF786000BF0C37BD4639
:1025F8005DF8047B704780B483B000AF786000BF9B
:102608000C37BD465DF8047B704780B483B000AFDB
:10261800786000BF0C37BD465DF8047B704780B515
:1026280084B000AF78607B689B6BFB60FEF7E8FACC
:10263800B8607B681B681B6803F48073B3F5807F00
:102648003BD0FB681B685A68FB681B6822F02002B5
:102658005A60FB689B68002B0DD1FB685B68B3F57B
:10266800827F08D1FB681B685A68FB681B6822F0E8
:1026780003025A6007E0FB681B685A68FB681B681E
:1026880022F001025A60BA686421F86800F028F95B
:102698000346002B02D0FB6820225A65FB68002203
:1026A800DA87FB68012283F85120FB685B6D002BF9
:1026B80003D0F868FFF7A9FF02E0F868FFF787FF83
:1026C8001037BD4680BD80B584B000AF78607B68A8
:1026D8009B6BFB60FEF794FAB8607B681B681B680D
:1026E80003F48073B3F5807F2FD0FB681B685A68AA
:1026F800FB681B6822F020025A60BA686421F868F7
:1027080000F054F90346002B05D0FB685B6D43F0DD
:102718002002FB685A65FB681B685A68FB681B68DF
:1027280022F003025A60FB680022DA86FB68002266
:10273800DA87FB68012283F85120FB685B6D002B68
:1027480003D0F868FFF761FF02E0F86800F04EFA7E
:102758001037BD4680BD80B584B000AF78607B6817
:102768009B6BFB60F868FFF73CFF00BF1037BD4666
:1027780080BD80B584B000AF78607B689B6BFB60E0
:10278800F868FFF738FF00BF1037BD4680BD80B539
:1027980084B000AF78607B689B6BFB60FB681B684C
:1027A8005A68FB681B6822F003025A60FB685B6D7D
:1027B80043F01002FB685A65FB68012283F8512038
:1027C800F868FFF722FF00BF1037BD4680BD000044
:1027D80080B588B000AFF860B9603B601346FB7104
:1027E800FEF70EFA0246BB6A9B1A3A681344FB616D
:1027F800FEF706FAB861394B1B685B011B0DFA69D5
:1028080002FB03F37B6154E03B68B3F1FF3F50D018
:10281800FEF7F6F90246BB69D31AFA699A4202D959
:10282800FB69002B3DD1FB681B685A68FB681B6875
:1028380022F0E0025A60FB685B68B3F5827F11D131
:10284800FB689B68B3F5004F04D0FB689B68B3F541
:10285800806F07D1FB681B681A68FB681B6822F049
:1028680040021A60FB689B6AB3F5005F0FD1FB68F2
:102878001B681A68FB681B6822F400521A60FB6820
:102888001B681A68FB681B6842F400521A60FB68F0
:10289800012283F85120FB68002283F8502003238B
:1028A80017E07B69002B01D10023FB617B69013BA9
:1028B8007B61FB681B689A68BB681340BA689A42D8
:1028C8000CBF01230023DBB21A46FB799A429BD145
:1028D800002318462037BD4680BD00BF00000020F9
:1028E80080B586B002AFF860B9607A60FB685B6853
:1028F800B3F5827F11D1FB689B68B3F5004F04D014
:10290800FB689B68B3F5806F07D1FB681B681A6882
:10291800FB681B6822F040021A60FB685B68B3F52D
:10292800827F2AD1FB689B68B3F5806F12D07B68E1
:102938000093BB6800228021F868FFF749FF03462F
:10294800002B2DD0FB685B6D43F02002FB685A65B5
:10295800032326E07B680093BB6800220121F86806
:10296800FFF736FF0346002B1AD0FB685B6D43F078
:102978002002FB685A65032313E07B680093BB6859
:1029880000220121F868FFF723FF0346002B07D038
:10299800FB685B6D43F02002FB685A65032300E087
:1029A800002318461037BD4680BD000080B588B0AA
:1029B80002AFF860B9607A607B680093BB68012257
:1029C8000221F868FFF704FF0346002B07D0FB68D5
:1029D8005B6D43F02002FB685A65032332E01B4B12
:1029E8001B681B4AA2FB03235B0D4FF47A7202FBA0
:1029F80003F37B61FB685B68B3F5827F12D17B6868
:102A08000093BB6800228021F868FFF7E1FE0346C7
:102A1800002B16D0FB685B6D43F02002FB685A65FB
:102A280003230FE07B69002B0AD07B69013B7B61A4
:102A3800FB681B689B6803F08003802BF2D000E0E2
:102A480000BF002318461837BD4680BD000000208F
:102A5800819F5E1680B500AF0449054803F01EFD4E
:102A680003461A46034B1A7000BF80BD6001002060
:102A78000C0000205C01002080B400AF0023184641
:102A8800BD465DF8047B704780B582B000AF034651
:102A9800FB71FB79184600F0B5F90346184608376C
:102AA800BD4680BD80B582B000AF0346FB71FB799F
:102AB800184600F079FA034618460837BD4680BD27
:102AC80080B584B000AFB9607A603B600346FB73A1
:102AD800F87B3B687A68B96800F09AFA03461846AA
:102AE8001037BD4680BD80B584B000AFB9607A604C
:102AF8003B600346FB73F87B3B687A68B96800F073
:102B08001FFB034618461037BD4680BD80B582B00E
:102B180000AF03463A60FB710B46BB71B979FB798C
:102B28003A68184600F088FB034618460837BD4641
:102B380080BD000080B483B000AF0346FB71FB7911
:102B4800072B01D90723FB71134B1B681A68124B1B
:102B58001B6822F040021A600F4B1B681A680E4B64
:102B68001B6822F038021A600B4B1B681968FB7946
:102B7800DA00094B1B680A431A60074B1B681A687E
:102B8800054B1B6842F040021A6000BF0C37BD4677
:102B98005DF8047B704700BF4000002080B483B01C
:102BA80000AF0346FB71104B1B680C33FA791A709F
:102BB80000BF0D4B1B689B6803F00103002BF8D086
:102BC80000BF094B1B689B6803F08003002BF8D1FA
:102BD800054B1B680C331B78DBB218460C37BD4617
:102BE8005DF8047B704700BF4000002080B582B0CC
:102BF80000AF78607B68054A934202D10348FFF72B
:102C0800A7FC00BF0837BD4680BD00BF40000020BC
:102C180080B588B000AF03463960FB711346BB80AE
:102C2800FF23FB73344BDB6C1B687B61324B9B6C63
:102C38001B683B613B691B6823F001023B691A6012
:102C48007B691B6823F001027B691A6000E000BF02
:102C58003B691B6803F00103002BF8D17B691B68F3
:102C680003F00103002BF2D1FB79002B17D17B690C
:102C78001B6823F400727B691A607B691B6843F444
:102C880080627B691A603B691B6823F4C0623B69F8
:102C98001A6007F10F03FB613B68BB6119E0FB7920
:102CA800012B16D17B691B6823F4C0627B691A600B
:102CB8003B691B6823F400723B691A603B691B6817
:102CC80043F480623B691A603B68FB6107F10F03BC
:102CD800BB61BB88BA69F9690748FFF73FFB00BFCA
:102CE800054B93F85130DBB2012BF9D100BF00BF7F
:102CF8002037BD4680BD00BF4000002080B582B0AF
:102D080000AFFF20FFF74AFFFF20FFF747FF03460A
:102D1800FB71FB79FF2BF7D1FB7918460837BD46C5
:102D280080BD000080B584B000AF03463960FB71F8
:102D380097F90730002B0EDAFB7903F07F03FB715C
:102D480000217720FFF7EEFF03467B737B7B012B87
:102D580001D97B7B50E02A4B10229A61284B4FF413
:102D680080129A61FFF7CAFF0346FF2B01D0FF23A9
:102D780042E0FB791846FFF711FF3B681B0EDBB2F8
:102D88001846FFF70BFF3B681B0CDBB21846FFF732
:102D980005FF3B681B0ADBB21846FFF7FFFE3B68DE
:102DA800DBB21846FFF7FAFE0123FB73FB79402BD1
:102DB80001D19523FB73FB79482B01D18723FB7342
:102DC800FB7B1846FFF7EAFEFB794C2B02D1FF206C
:102DD800FFF7E4FE0A23BB73FF20FFF7DFFE03467D
:102DE8007B7397F90D30002B05DABB7B013BBB7376
:102DF800BB7B002BF0D17B7B18461037BD4680BDCE
:102E08000008024090B585B000AF0346FB7100236F
:102E18007B73624B10229A610620FFF78BFE5F4B93
:102E28004FF480129A610A23FB7305E0FF20FFF735
:102E3800B5FEFB7B013BFB73FB7B002BF6D100212E
:102E48004020FFF76FFF0346012B72D14FF4D57175
:102E58004820FFF767FF0346012B47D10023FB7388
:102E68000DE0FC7BFF20FFF799FE03461A4604F1AC
:102E780010033B4403F8082CFB7B0133FB73FB7BFB
:102E8800032BEED9BB7A012B53D1FB7AAA2B50D155
:102E980000BF4FF08041E920FFF744FF0346002BB5
:102EA800F7D100217A20FFF73DFF0346002B40D1E0
:102EB8000023FB730DE0FC7BFF20FFF76FFE03464A
:102EC8001A4604F110033B4403F8082CFB7B01333A
:102ED800FB73FB7B032BEED93B7A03F04003002BFB
:102EE80001D00C2300E004237B7322E00021E920B9
:102EF800FFF718FF0346012B04D802237B73E9234D
:102F0800BB7303E001237B734123BB7300BFBB7B0F
:102F180000211846FFF706FF0346002BF7D14FF4B0
:102F280000715020FFF7FEFE0346002B01D000235E
:102F38007B731B4A7B7B1370184B10229A617B7B37
:102F4800002B0BD0174B1B78DBB223F00103DAB24E
:102F5800144B1A700120FFF7EDFD17E0114B1B7899
:102F6800DBB203F00103002B08D10C4B4FF48012A5
:102F78009A61FFF7C3FE094B10229A61094B1B782F
:102F8800DBB243F00103DAB2064B1A70054B1B782B
:102F9800DBB218461437BD4690BD00BF000802409A
:102FA800980300202000002080B483B000AF0346BF
:102FB800FB71044B1B78DBB218460C37BD465DF835
:102FC800047B70472000002080B584B000AF786093
:102FD8003960FF20FFF7E2FD0346FB73FB7BFF2B05
:102FE800F7D0FB7BFE2B01D000230DE03B689BB2A2
:102FF8001A4679680020FFF70BFEFF20FFF7CEFD89
:10300800FF20FFF7CBFD012318461037BD4680BDD2
:1030180080B584B000AFB9607A603B600346FB734B
:103028003B68002B01D104234EE0294B1B78DBB20F
:1030380003F00103002B01D0032345E0254B1B7847
:1030480003F00803002B02D17B685B027B603B68BE
:10305800012B11D179685120FFF764FE0346002B3C
:1030680029D14FF40071B868FFF7AEFF0346002B73
:1030780021D000233B601EE079685220FFF752FE02
:103088000346002B17D14FF40071B868FFF79CFF77
:103098000346002B0AD0BB6803F50073BB603B688E
:1030A800013B3B603B68002BEDD100E000BF0021F5
:1030B8004C20FFF737FE084B10229A613B68002B23
:1030C80014BF01230023DBB218461037BD4680BD6C
:1030D80020000020980300200008024080B584B03A
:1030E80000AF78600B46FB70FFF708FE0346FF2B26
:1030F80001D000231FE0FB781846FFF74FFDFB784F
:10310800FD2B17D04FF4007279680120FFF780FD7E
:10311800FF20FFF743FDFF20FFF740FDFF20FFF7EB
:103128003DFD0346FB73FB7B03F01F03052B01D01A
:10313800002300E0012318461037BD4680BD00007B
:1031480080B584B000AFB9607A603B600346FB731A
:103158003B68002B01D1042364E0344B1B78DBB2BD
:1031680003F00103002B01D003235BE02F4B1B78F6
:10317800DBB203F00403002B01D0022352E02C4BF6
:103188001B7803F00803002B02D17B685B027B608D
:103198003B68012B10D179685820FFF7C3FD03461F
:1031A800002B36D1FE21B868FFF798FF0346002BA5
:1031B8002FD000233B602CE01D4B1B7803F0060347
:1031C800002B03D03968D720FFF7ACFD7968592068
:1031D800FFF7A8FD0346002B1BD1FC21B868FFF7B9
:1031E8007DFF0346002B0AD0BB6803F50073BB6064
:1031F8003B68013B3B603B68002BEED100E000BF21
:10320800FD210020FFF76AFF0346002B01D10123AF
:103218003B60084B10229A613B68002B14BF0123C6
:103228000023DBB218461037BD4680BD20000020C1
:10323800980300200008024090B58BB000AF034609
:103248003A60FB710B46BB71012387F827303B6856
:103258003B62C04B1B78DBB203F00103002B01D0AB
:10326800032385E1BB790E2B00F2678101A252F896
:1032780023F000BFB9320008CD3200087B330008C4
:103288008B330008433500084335000843350008F0
:1032980043350008433500084335000881340008E9
:1032A80091340008B5340008D934000819350008ED
:1032B800FFF724FD0346FF2B40F04381002387F8E6
:1032C80027303EE100214920FFF72CFD0346002B63
:1032D80040F0398107F10C0310211846FFF774FEFE
:1032E8000346002B00F02F813B7B9B09DBB2012BAF
:1032F8000DD17B7D1A463B7D1B029BB213449BB2CA
:103308000133FB83FB8B9A023B681A602DE07B7CC0
:1033180003F00F03DAB2BB7DDB09DBB21344DAB288
:103328007B7D5B00DBB203F00603DBB21344DBB248
:10333800023387F826303B7D9B09DBB21A46FB7CBB
:103348009B009BB213449AB2BB7C9B029BB203F4D2
:1033580040639BB213449BB20133FB83FA8B97F80B
:103368002630093B9A403B681A60002387F82730CB
:10337800E9E03B684FF400721A80002387F8273091
:10338800F1E0754B1B7803F00403002B31D00021CA
:10339800CD20FFF7C7FC0346002B40F0D680FF2066
:1033A800FFF7FCFB07F10C0310211846FFF70CFE92
:1033B8000346002B00F0C980302387F8263007E049
:1033C800FF20FFF7EBFB97F82630013B87F8263004
:1033D80097F82630002BF3D1BB7D1B09DBB21A46C8
:1033E800102303FA02F23B681A60002387F827309B
:1033F800ABE000214920FFF795FC0346002B40F085
:10340800A48007F10C0310211846FFF7DDFD0346E1
:10341800002B00F09A80504B1B7803F00203002B1E
:1034280012D0BB7D5B0003F07E03FA7DD209D2B2D5
:1034380013445A1C7B7E9B09DBB2013B02FA03F35F
:103448001A463B681A6013E0BB7D9B109BB203F0E1
:103458001F030133FA7DD20002F01802F97D4909F1
:10346800C9B20A44013202FB03F31A463B681A60E8
:10347800002387F8273068E0374B1A783B6A1A70C0
:10348800002387F827306EE000214920FFF74AFC27
:103498000346002B5BD11021386AFFF795FD0346E0
:1034A800002B54D0002387F8273050E000214A2011
:1034B800FFF738FC0346002B50D11021386AFFF77C
:1034C80083FD0346002B49D0002387F8273045E0C9
:1034D80000217A20FFF726FC0346002B40D1042365
:1034E80087F826300CE03C6A631C3B62FF20FFF73C
:1034F80055FB0346237097F82630013B87F82630A2
:1035080097F82630002BEED1002387F8273027E0E4
:103518000021CD20FFF706FC0346002B22D1FF2017
:10352800FFF73CFB4021386AFFF74EFD0346002BAE
:1035380018D0002387F8273014E0042387F82730B1
:1035480011E000BF0FE000BF0DE000BF0BE000BFBF
:1035580009E000BF200000209803002000BF02E01F
:1035680000BF00E000BF044B10229A6197F8273093
:1035780018462C37BD4690BD0008024080B584B07F
:1035880000AF0346FB71FB79084A9B0013445B6854
:103598005B68FA7905490A44127A10469847034647
:1035A800FB73FB7B18461037BD4680BDF405002031
:1035B80080B584B000AF0346FB710023FB73FB7931
:1035C8000E4AD35C002B14D1FB790C4A9B001344A0
:1035D8005B681B68FA7909490A44127A10469847C9
:1035E8000346FB73FB7B002B03D1FB79034A0121C4
:1035F800D154FB7B18461037BD4680BDF40500202A
:1036080090B587B000AFB9607A603B600346FB7342
:10361800FB7B0A4A9B0013445B689C68FB7B074A58
:103628001344187A3B687A68B968A0470346FB7563
:10363800FB7D18461C37BD4690BD00BFF405002031
:1036480090B587B000AFB9607A603B600346FB7302
:10365800FB7B0A4A9B0013445B68DC68FB7B074AD8
:103668001344187A3B687A68B968A0470346FB7523
:10367800FB7D18461C37BD4690BD00BFF4050020F1
:1036880080B584B000AF03463A60FB710B46BB714E
:10369800FB79094A9B0013445B681B69FA79064960
:1036A8000A44107AB9793A6898470346FB73FB7B5A
:1036B80018461037BD4680BDF405002080B485B09B
:1036C80000AF78607B6801331B78FB81FB891B02A4
:1036D8001AB27B681B781BB213431BB2FB81FB89B0
:1036E80018461437BD465DF8047B704780B485B032
:1036F80000AF78607B6803331B78FB60FB681B02B4
:103708007A68023212781343FB60FB681B027A68FE
:10371800013212781343FB60FB681B027A68127847
:103728001343FB60FB6818461437BD465DF8047BFD
:10373800704780B483B000AF78600B467B807B68AD
:103748005A1C7A607A88D2B21A707B881B0A7B80EE
:103758007B685A1C7A607A88D2B21A7000BF0C371C
:10376800BD465DF8047B704780B483B000AF7860D5
:1037780039607B685A1C7A603A68D2B21A703B6822
:103788001B0A3B607B685A1C7A603A68D2B21A708E
:103798003B681B0A3B607B685A1C7A603A68D2B265
:1037A8001A703B681B0A3B607B685A1C7A603A684F
:1037B800D2B21A7000BF0C37BD465DF8047B704763
:1037C80080B487B000AFF860B9607A60FB687B614D
:1037D800BB683B617B68002B0DD03A69531C3B6189
:1037E8007B69591C796112781A707B68013B7B6090
:1037F8007B68002BF1D100BF1C37BD465DF8047B08
:10380800704780B487B000AFF860B9607A60FB6831
:103818007B617B695A1C7A61BA68D2B21A707B687C
:10382800013B7B607B68002BF3D100BF00BF1C37D6
:10383800BD465DF8047B704780B489B000AFF8607E
:10384800B9607A60FB68FB61BB68BB6100237B6180
:10385800FB695A1CFA611B781946BB695A1CBA6184
:103868001B78CB1A7B617B68013B7B607B68002BF4
:1038780002D07B69002BEBD07B6918462437BD4604
:103888005DF8047B704780B483B000AF786039601E
:1038980002E07B6801337B607B681B78002B05D0D6
:1038A8007B681B781A463B689342F2D17B681B7889
:1038B80018460C37BD465DF8047B704780B485B068
:1038C80000AF786039600023BB60BB68FB6029E00B
:1038D800274AFB681B0113441B68002B1DD0244A90
:1038E800FB681B0113441A687B681B689A4216D14F
:1038F8001F4AFB681B01134404331A687B689B68E2
:103908009A420CD11A4AFB681B01134408331A68FF
:103918007B685B699A4202D107E00123BB60FB68C0
:103928000133FB60FB68042BD2D9FB68052B09D156
:10393800BB68002B02D13B68022B01D1002310E0A9
:1039480012230EE03B68002B08D1094AFB681B01D3
:1039580013440C331B88B3F5807F01D1102300E09A
:10396800002318461437BD465DF8047B704700BF36
:10397800A403002080B483B000AF00237B6002E082
:103988007B6801337B607B68042B06D8094A7B6817
:103998001B0113441B68002BF2D17B68052B14BF55
:1039A80001230023DBB218460C37BD465DF8047BC3
:1039B800704700BFA403002080B485B000AF7860D2
:1039C80039600023FB601FE0414AFB681B01134478
:1039D8001A687B681B689A4213D13D4AFB681B0131
:1039E800134404331A687B689B689A4209D1384AA1
:1039F800FB681B01134408331A687B685B699A42A9
:103A080006D0FB680133FB60FB68042BDCD900E0BF
:103A180000BFFB68052B32D10023FB6002E0FB6886
:103A28000133FB60FB68042B06D8294AFB681B019D
:103A380013441B68002BF2D1FB68052B01D100232E
:103A480040E07B681A682249FB681B010B441A6036
:103A58007B689A681E49FB681B010B4404331A6093
:103A68007B685A691A49FB681B010B4408331A60C2
:103A7800174AFB681B0113440C3300221A803B6869
:103A8800002B09D0124AFB681B0113440C331B8816
:103A9800002B01D0002315E03B68002B08D10C4A0D
:103AA800FB681B0113440C331B8801339AB201E0F5
:103AB8004FF480720649FB681B010B440C331A80D3
:103AC800FB68013318461437BD465DF8047B704720
:103AD800A403002080B485B000AF78607B68013B08
:103AE8007B607B68042B25D8174A7B681B0113442D
:103AF8000C331B88FB81FB89B3F5807F01D1002340
:103B0800FB81FB89002B02D0FB89013BFB810E4A1C
:103B18007B681B0113440C33FA891A80FB89002B3C
:103B280005D1094A7B681B01134400221A6000234F
:103B38007B7301E002237B737B7B18461437BD46F9
:103B48005DF8047B704700BFA403002080B485B0F3
:103B580000AF78600023FB6010E00D4AFB681B0192
:103B680013441B687A689A4205D1094AFB681B010D
:103B7800134400221A60FB680133FB60FB68042BC6
:103B8800EBD900BF00BF1437BD465DF8047B704712
:103B9800A403002080B586B000AF78600023FB73D3
:103BA8007B68DB78002B34D07B681B6B7B617B6880
:103BB80058787B6803F1340101237A69FFF740FDE7
:103BC8000346002B02D00123FB7322E07B6800220E
:103BD800DA707B685B6A7A69D21A7B68DB699A4219
:103BE80017D27B689B783B6110E07B68DB697A6958
:103BF80013447B617B6858787B6803F134010123A7
:103C08007A69FFF71DFD3B69013B3B613B69012B6D
:103C1800EBD8FB7B18461837BD4680BD80B584B00D
:103C280000AF786039600023FB737B681B6B3A68D0
:103C38009A421BD07868FFF7ADFF0346FB73FB7B06
:103C4800002B13D17B6858787B6803F1340101237A
:103C58003A68FFF7D5FC0346002B04D04FF0FF333A
:103C68003B600123FB737B683A681A63FB7B184649
:103C78001037BD4680BD000080B584B000AF7860C5
:103C88007868FFF787FF0346FB73FB7B002B58D14F
:103C98007B681B78032B48D17B681B79012B44D1A7
:103CA8007B6834334FF4007200211846FFF7A9FDF2
:103CB8007B68343303F5FF734AF655211846FFF73E
:103CC80038FD7B68343321491846FFF74DFD7B6882
:103CD800343303F5F2731E491846FFF745FD7B6838
:103CE800343303F5F4727B685B6919461046FFF7B5
:103CF8003BFD7B68343303F5F6727B681B69194614
:103D08001046FFF731FD7B681B6A5A1C7B681A63F3
:103D18007B6858787B6803F134017B681A6B012350
:103D2800FFF78EFC7B6800221A717B685B780022A3
:103D380000211846FFF7A4FC0346002B01D00123FD
:103D4800FB73FB7B18461037BD4680BD525261415C
:103D58007272416180B483B000AF786039603B68AB
:103D6800023B3B607B689B69023B3A689A4201D3FD
:103D7800002308E07B685B891A463B6803FB02F274
:103D88007B68DB6A134418460C37BD465DF8047B34
:103D9800704780B586B000AF786039607B681B6873
:103DA8003B613B68012B04D93B699B693A689A429D
:103DB80002D301237B618EE04FF0FF337B613B69C7
:103DC8001B78032B61D0032B7BDC012B02D0022B49
:103DD80041D076E03B68FB60FB685B08FA681344F7
:103DE800FB603B695A6AFB685B0A134419463869E9
:103DF800FFF714FF0346002B66D1FB685A1CFA60D4
:103E0800C3F308033A69134493F83430BB603B6941
:103E18005A6AFB685B0A134419463869FFF7FEFEC5
:103E28000346002B52D1FB68C3F308033A691344D5
:103E380093F834301B02BA681343BB603B6803F045
:103E48000103002B02D0BB681B0902E0BB68C3F367
:103E58000B037B613FE03B695A6A3B681B0A1344CA
:103E680019463869FFF7DAFE0346002B30D13B6963
:103E780003F134023B685B0003F4FF7313441846F4
:103E8800FFF71CFC03467B6125E03B695A6A3B68E7
:103E9800DB09134419463869FFF7C0FE0346002BB7
:103EA80018D13B6903F134023B689B0003F4FE73AD
:103EB80013441846FFF71AFC034623F070437B614E
:103EC80009E001237B6106E000BF04E000BF02E0D7
:103ED80000BF00E000BF7B6918461837BD4680BDAB
:103EE80090B589B000AFF860B9607A600223FB77BB
:103EF800BB68012B40F2D980FB689B69BA689A427B
:103F080080F0D380FB681B78032B00F09680032B8E
:103F180000F3CB80012B02D0022B6ED0C5E0BB682A
:103F2800BB61BB695B08BA691344BB61FB685A6A29
:103F3800BB695B0A13441946F868FFF76FFE03462E
:103F4800FB77FB7F002B40F0A980FB6803F134026C
:103F5800BB69591CB961C3F3080313447B61BB688F
:103F680003F00103002B0DD07B691B785BB203F0D3
:103F78000F035AB27B68DBB21B015BB213435BB21F
:103F8800DBB201E07B68DBB27A691370FB6801225F
:103F9800DA70FB685A6ABB695B0A13441946F86809
:103FA800FFF73CFE0346FB77FB7F002B78D1FB68CD
:103FB80003F13402BB69C3F3080313447B61BB6894
:103FC80003F00103002B03D07B681B09DBB20EE072
:103FD8007B691B785BB223F00F035AB27B681B0A1C
:103FE8005BB203F00F035BB213435BB2DBB27A69D7
:103FF8001370FB680122DA7057E0FB685A6ABB68E5
:104008001B0A13441946F868FFF708FE0346FB77B6
:10401800FB7F002B46D1FB6803F13402BB685B00D1
:1040280003F4FF7313447A6892B211461846FFF7F7
:1040380080FBFB680122DA7037E0FB685A6ABB68CC
:10404800DB0913441946F868FFF7E8FD0346FB77D8
:10405800FB7F002B28D17B6823F07044FB6803F1B9
:104068003402BB689B0003F4FE7313441846FFF741
:104078003DFB034603F0704323437B60FB6803F179
:104088003402BB689B0003F4FE7313447968184636
:10409800FFF76AFBFB680122DA7006E000BF04E064
:1040A80000BF02E000BF00E000BFFB7F18462437D6
:1040B800BD4690BD80B588B000AFF860B9607A6041
:1040C8000023FB77FB681B68BB61BB68012B04D925
:1040D800BB699B69BA689A4201D302234BE07B68AB
:1040E800002B0CD04FF0FF327968B869FFF7F8FE63
:1040F8000346FB77FB7F002B01D0FB7F3BE0B968D1
:10410800F868FFF746FE78617B69002B31D07B6940
:10411800012B01D102232EE07B69B3F1FF3F01D1CE
:10412800012328E00022B968B869FFF7D9FE0346E1
:10413800FB77FB7F002B01D0FB7F1CE0BB695A6932
:10414800BB699B69023B9A420BD2BB695B695A1CEB
:10415800BB695A61BB691B7943F00103DAB2BB69D9
:104168001A717B69BB60BB699B69BA689A42C6D3FE
:1041780000E000BF002318462037BD4680BD80B54B
:1041880088B000AF786039607B681B683B613B682A
:10419800002B0DD13B691B69BB61BB69002B04D0A7
:1041A8003B699B69BA699A421BD30123BB6118E03A
:1041B80039687868FFF7EDFDF860FB68012B01D8D6
:1041C800012370E0FB68B3F1FF3F01D1FB686AE0AF
:1041D8003B699B69FA689A4201D2FB6863E03B68D5
:1041E800BB61BB69FB61FB690133FB613B699B698F
:1041F800FA699A4207D30223FB61FA69BB699A42BA
:1042080001D900234FE0F9697868FFF7C2FDF8602B
:10421800FB68002B0ED0FB68012B03D0FB68B3F1C1
:10422800FF3F01D1FB683EE0FA69BB699A42DAD1E7
:10423800002338E000BF4FF0FF32F9693869FFF713
:104248004FFE0346FB75FB7D002B09D13B68002B15
:1042580006D0FA6939683869FFF742FE0346FB75EC
:10426800FB7D002B16D13B69FA691A613B695A69D3
:104278003B699B69023B9A4204D83B695B695A1EB9
:104288003B695A613B691B7943F00103DAB23B6928
:104298001A7107E0FB7D012B02D14FF0FF3300E0DC
:1042A8000123FB61FB6918462037BD4680BD80B4F9
:1042B80087B000AF786039607B681B68FB607B68FB
:1042C800DB6A04333B613B685B0AFA685289B3FBDB
:1042D800F2F37B613B691A1D3A611B68BB60BB68DE
:1042E800002B01D1002310E07A69BB689A4207D3FA
:1042F8007A69BB68D31A7B613B6904333B61E9E7A0
:1043080000BF3B691A687B69134418461C37BD46D1
:104318005DF8047B704780B586B000AF786039607F
:104328007B681B683B613B68B3F5001F04D23B68A0
:1043380003F01F03002B01D0022363E07B683A6877
:104348005A617B689B687B617B69002B06D13B695E
:104358001B78022B02D93B699B6A7B617B69002B26
:104368000CD13B685B093A691289934201D3022355
:1043780048E03B699A6A7B68DA6129E03B695B89B6
:104388005B02FB6019E07B6879691846FFF701FD5D
:1043980078617B69B3F1FF3F01D1012332E07B698A
:1043A800012B04D93B699B697A699A4201D302239C
:1043B80028E03A68FB68D31A3B603A68FB689A427F
:1043C800E1D279693869FFF7C5FC02467B68DA6192
:1043D8007B687A699A617B68DB69002B01D10223CB
:1043E80010E07B68DA693B685B0A1A447B68DA612B
:1043F8003B6903F134023B68C3F308031A447B6842
:104408001A62002318461837BD4680BD80B586B0AD
:1044180000AF786039607B681B68FB607B685B690C
:104428002033BB607B68DB69002B03D0BB68B3F526
:10443800001F01D30423AAE0BB68C3F30803002BC1
:1044480040F098807B68DB695A1C7B68DA617B687E
:104458009B69002B0BD1BB685B09FA6812899342F0
:10446800C0F088807B680022DA6104238FE0BB6893
:104478005B0AFA685289013A1340002B7AD17A68AC
:104488007B689B6919461046FFF783FC78617B6956
:10449800012B01D802237AE07B69B3F1FF3F01D1F8
:1044A800012374E0FB689B697A699A4258D33B6898
:1044B800002B04D17B680022DA61042367E07A6864
:1044C8007B689B6919461046FFF759FE78617B693E
:1044D800002B01D107235AE07B69012B01D102236C
:1044E80055E07B69B3F1FF3F01D101234FE0F86844
:1044F800FFF750FB0346002B01D0012347E0FB6880
:1045080034334FF4007200211846FFF77AF900237C
:104518003B617969F868FFF71DFC0246FB681A637E
:1045280012E0FB680122DA70F868FFF733FB0346F4
:10453800002B01D001232AE03B6901333B61FB6872
:104548001B6B5A1CFB681A63FB685B891A463B693C
:104558009342E6D3FB681A6B3B69D21AFB681A636D
:104568007B687A699A617969F868FFF7F3FB024614
:104578007B68DA617B68BA685A61FB6803F13402C8
:10458800BB68C3F308031A447B681A620023184601
:104598001837BD4680BD80B586B000AF78603960F9
:1045A8007B681B68FB6000217868FFF7B4FE034650
:1045B800FB75FB7D002B2BD100233B617B68DB69FE
:1045C8001946F868FFF72AFB0346FB75FB7D002BAD
:1045D8001DD17B681B6A1B78E52B04D07B681B6A9E
:1045E8001B78002B07D13B6901333B613A693B6873
:1045F8009A4202D10CE000233B6101217868FFF761
:1046080005FF0346FB75FB7D002BD7D000E000BFFC
:10461800FB7D042B01D10723FB75FB7D184618375A
:10462800BD4680BD80B584B000AF786039603B6816
:104638001A331846FFF742F80346FB607B681B787D
:10464800032B09D13B6814331846FFF737F80346A4
:104658001B04FA681343FB60FB6818461037BD4615
:1046680080BD80B584B000AFF860B9607A60BB687F
:104678001A337A6892B211461846FFF75AF8FB685F
:104688001B78032B09D1BB6803F114027B681B0C50
:104698009BB219461046FFF74CF800BF1037BD46CD
:1046A80080BD000090B587B000AF786039603B6886
:1046B8001A331846FFF702F80346002B01D00023EF
:1046C80059E03B681B7803F03F035A1E13465B0012
:1046D80013449B0013447B610123FB8100233B614E
:1046E80033E0274A3B6913441B781A463B68134456
:1046F8001846FEF7E3FF0346BB81FB89002B1AD05F
:104708007B69FE2B12D8BB89184601F013FF0346BC
:104718001C467B695A1C7A615B007A6813441B88C3
:10472800184601F007FF03469C4201D0002322E00F
:10473800BB89FB8106E0BB894FF6FF72934201D02B
:10474800002318E03B6901333B613B690C2BC8D956
:104758003B681B7803F04003002B0BD0FB89002B30
:1047680008D07B695B007A6813441B88002B01D052
:10477800002300E0012318461C37BD4690BD00BF4A
:10478800C467000880B588B000AFF860B96011460A
:104798001A460B46FB711346BB71BB680D33BA79D9
:1047A8001A70BB680B330F221A70BB680C330022D7
:1047B8001A70BB681A3300211846FEF7BAFFFB7956
:1047C8005A1E13465B0013449B001344FB610023ED
:1047D800FB820023BB61FB8A4FF6FF72934207D02E
:1047E800FB695A1CFA615B00FA6813441B88FB8258
:1047F800174ABB6913441B781A46BB681344FA8AE4
:1048080011461846FEF795FFFB8A002B02D14FF69A
:10481800FF73FB82BB690133BB61BB690C2BDAD91F
:10482800FB8A4FF6FF72934206D0FB695B00FA6879
:1048380013441B88002B03D1FB7943F04003FB7121
:10484800BB68FA791A7000BF2037BD4680BD00BF2B
:10485800C467000880B58CB000AFF860B9607A60B2
:104868003B600B22B968F868FEF7AAFF3B68052B86
:104878002BD93B68FB6122E07B689A1C7A601B8815
:104888007B840023BB6217E0FB695A007B8C03F032
:1048980001031344FB617B8C5B087B84FB6903F495
:1048A8008033002B05D0FB6983F4883383F0210320
:1048B800FB61BB6A0133BB62BB6A0F2BE4D97B681F
:1048C8001B88002BD8D1FB693B600723BB623B6880
:1048D800DBB203F00F03DBB2303387F82F3097F8E1
:1048E8002F30392B04D997F82F30073387F82F301A
:1048F800BB6A5A1EBA6230333B4497F82F2003F83C
:104908001C2C3B681B093B603B68002BDFD107F17F
:104918001402BB6A13447E221A7000237B6202E0F1
:104928007B6A01337B627A6ABB6A9A4205D2FA686B
:104938007B6A13441B78202BF2D1BB6A072B07D85C
:10494800BB6A5A1CBA6230333B4413F81C1C00E0A3
:1049580020217B6A5A1C7A62FA6813440A461A7044
:104968007B6A072BE9D900BF00BF3037BD4680BD41
:1049780080B485B000AF78600023FB730B23BB6065
:10498800FB7BDAB25208DB011343DAB27B68591CAD
:1049980079601B781344FB73BB68013BBB60BB6841
:1049A800002BEDD1FB7B18461437BD465DF8047B20
:1049B800704780B586B000AF78607B681B683B6144
:1049C80000217868FFF7A7FC0346FB75FB7D002BE9
:1049D80001D0FB7DA9E0FF233B753B7D7B757B68A0
:1049E8004FF0FF321A637B68DB6919463869FFF7B5
:1049F80015F90346FB75FB7D002B40F090807B6822
:104A08001B6A1B78BB75BB7D002B02D10423FB7589
:104A18008AE07B681B6A0B331B7803F03F03FB7348
:104A28007B68FA7B9A71BB7DE52B07D0FB7B03F093
:104A38000803002B09D0FB7B0F2B06D0FF237B75C7
:104A48007B684FF0FF321A635EE0FB7B0F2B36D199
:104A58007B6893F82F3003F04003002B54D1BB7DC3
:104A680003F04003002B0DD07B681B6A5B7B3B7512
:104A7800BB7D23F04003BB75BB7D7B757B685A69A2
:104A88007B681A63BA7D7B7D9A4215D17B681B6A65
:104A98000D331B783A7D9A420ED13B69DA687B6800
:104AA8001B6A19461046FFF7FDFD0346002B03D08D
:104AB8007B7D013BDBB200E0FF237B7524E07B7D3F
:104AC800002B09D17B681B6A1846FFF751FF034684
:104AD8001A463B7D934224D07B6893F82F3003F02D
:104AE8000103002B0AD17B68186A7B6824330B22E8
:104AF8001946FEF7A1FE0346002B14D0FF237B7551
:104B08007B684FF0FF321A6300217868FFF77EFC5C
:104B18000346FB75FB7D002B3FF465AF04E000BF47
:104B280002E000BF00E000BFFB7D18461837BD4615
:104B380080BD000080B58CB000AF78607B681B68D2
:104B4800FB617B6893F82F3003F0A003002B01D0A2
:104B58000623E0E000237B6202E07B6A01337B628C
:104B6800FB69DA687B6A5B0013441B88002BF4D16D
:104B78007B6803F1240107F10C030C221846FEF7A9
:104B88001FFEFB7D03F00103002B32D07B6840221F
:104B980083F82F200123BB6216E07B6803F1240011
:104BA800FB69DA6807F10C01BB6AFFF753FE786806
:104BB800FFF7FFFE034687F82F3097F82F30002BBA
:104BC80006D1BB6A0133BB62BB6A632BE5D900E03F
:104BD80000BFBB6A642B01D107239CE097F82F30F4
:104BE800042B02D097F82F3095E0FA7D7B6883F884
:104BF8002F20FB7D03F00203002B07D07B6A0C33C8
:104C0800474AA2FB03239B08013300E001233B62D0
:104C1800396A7868FFF7BFFC034687F82F3097F8A2
:104C28002F30002B48D13B6A013B3B623B6A002B8B
:104C380042D07B685A693B6A5B01D31A1946786887
:104C4800FFF769FB034687F82F3097F82F30002BC2
:104C580032D17B6824331846FFF78AFE0346FB7679
:104C68007B68DB691946F869FEF7D8FF034687F8C1
:104C78002F3097F82F30002B1DD1FB69D8687B683F
:104C8800196A3B6ADAB2FB7EFFF77CFDFB690122F9
:104C9800DA7000217868FFF7B9FB034687F82F30F0
:104CA80097F82F30002B07D13B6A013B3B623B6AE8
:104CB800002BD5D100E000BF97F82F30002B28D16A
:104CC8007B68DB691946F869FEF7A8FF034687F891
:104CD8002F3097F82F30002B1BD17B681B6A2022BE
:104CE80000211846FEF78DFD7B68186A7B6824331F
:104CF8000B221946FEF764FD7B6893F82F207B682A
:104D08001B6A0C3302F01802D2B21A70FB69012236
:104D1800DA7097F82F3018463037BD4680BD00BF8F
:104D28004FECC44E80B58AB000AF786039603B68FC
:104D38001B683B617B681B68DB68FB6000237B6149
:104D48007B69BB61BB695A1CBA613A6913441B7819
:104D5800BB84BB8C1F2B40D9BB8C2F2B06D0BB8CA4
:104D68005C2B10D102E0BB690133BB613A69BB69B6
:104D780013441B782F2BF6D03A69BB6913441B7870
:104D88005C2BF0D02AE07B69FE2B01D906237DE15C
:104D9800BB8CDBB2BB84BB8C0121184601F08EFBB7
:104DA8000346BB84BB8C002B01D106236EE1BB8C70
:104DB8007F2B09D8BB8C19468D48FEF764FD034646
:104DC800002B01D0062361E17B695A1C7A615B00E4
:104DD800FA681344BA8C1A80B4E700BF3A69BB6911
:104DE8001A443B681A60BB8C1F2B01D8042300E0CF
:104DF800002387F8273011E07B6903F10043013B6A
:104E08005B00FA6813441B88BB84BB8C202B02D040
:104E1800BB8C2E2B06D17B69013B7B617B69002B08
:104E2800EAD100E000BF7B695B00FA681344002206
:104E38001A807B69002B01D1062327E17B68243384
:104E48000B2220211846FEF7DCFC0023BB6102E0A0
:104E5800BB690133BB61BB695B00FA6813441B88FB
:104E6800202BF5D0BB695B00FA6813441B882E2BF6
:104E7800EED0BB69002B09D097F8273043F0030325
:104E880087F8273002E07B69013B7B617B69002B57
:104E980009D07B6903F10043013B5B00FA681344C6
:104EA8001B882E2BEFD1002387F8263000233B6286
:104EB8000823FB61BB695A1CBA615B00FA6813449A
:104EC8001B88BB84BB8C002B00F09080BB8C202BF4
:104ED80006D0BB8C2E2B0AD1BA697B699A4206D0C0
:104EE80097F8273043F0030387F827307DE03A6AC4
:104EF800FB699A4203D2BA697B699A4223D1FB695A
:104F08000B2B06D197F8273043F0030387F8273097
:104F180075E0BA697B699A4205D097F8273043F063
:104F2800030387F82730BA697B699A4266D87B6998
:104F3800BB6108233B620B23FB6197F826309B007B
:104F480087F8263051E0BB8C7F2B14D9BB8C00210D
:104F5800184601F0B3FA0346BB84BB8C002B04D07F
:104F6800BB8C803B234AD35CBB8497F8273043F043
:104F7800020387F82730BB8C002B07D0BB8C19465F
:104F88001D48FEF780FC0346002B08D05F23BB8436
:104F980097F8273043F0030387F827301BE0BB8CD2
:104FA800402B09D9BB8C5A2B06D897F8263043F0EA
:104FB800020387F826300EE0BB8C602B0BD9BB8C24
:104FC8007A2B08D897F8263043F0010387F8263063
:104FD800BB8C203BBB843B6A5A1C3A62BA8CD1B268
:104FE8007A6813440A4683F8242063E700BF06E082
:104FF800E466000844670008F066000800BF7B68A4
:1050080093F82430E52B03D17B68052283F824200C
:10501800FB69082B04D197F826309B0087F82630C7
:1050280097F8263003F00C030C2B05D097F82630A0
:1050380003F00303032B05D197F8273043F002034D
:1050480087F8273097F8273003F00203002B17D191
:1050580097F8263003F00303012B05D197F8273082
:1050680043F0100387F8273097F8263003F00C0335
:10507800042B05D197F8273043F0080387F8273029
:105088007B6897F8272083F82F20002318462837B5
:10509800BD4680BD80B586B000AF786039607B685A
:1050A8003B613B691B68FB6002E03B6801333B6086
:1050B8003B681B782F2BF8D03B681B785C2BF4D00F
:1050C8003B6900229A603B681B781F2B0AD87B68D3
:1050D800802283F82F2000217868FFF71CF9034607
:1050E800FB7543E03B4619467868FFF71BFE03460D
:1050F800FB75FB7D002B34D17868FFF75AFC03461B
:10510800FB757B6893F82F30FB72FB7D002B0AD070
:10511800FB7D042B27D1FB7A03F00403002B22D15B
:105128000523FB751FE0FB7A03F00403002B1CD159
:105138003B699B7903F01003002B02D10523FB7513
:1051480014E0FB6803F134027B685B69C3F308036E
:1051580013441946F868FFF765FA02463B699A60F6
:10516800C0E700BF02E000BF00E000BFFB7D1846BB
:105178001837BD4680BD80B487B000AF78604FF067
:10518800FF333B617B681B68002B31D07B681B6851
:105198007B6102E07B6901337B617B691B781F2B94
:1051A80003D97B691B783A2BF4D17B691B783A2B9E
:1051B8001CD17B681B68FB60FB685A1CFA601B7873
:1051C800303BBB60BB68092B0ED8FA687B699A42F2
:1051D8000AD1BB68002B07D1BB683B617B690133EF
:1051E8007B617B687A691A603B6902E000233B6156
:1051F8003B6918461C37BD465DF8047B70470000C4
:1052080080B582B000AF786039607B680022DA70C0
:105218007B684FF0FF321A6339687868FEF7FEFC46
:105228000346002B01D0042338E07B68343303F5B0
:10523800FF731846FEF742FA03461A464AF6552304
:105248009A4201D0032329E07B6893F83430E92B94
:1052580009D07B6893F83430EB2B1ED17B6893F828
:105268003630902B19D17B68343336331846FEF725
:105278003DFA034623F07F430A4A934201D10023B3
:105288000CE07B68343352331846FEF72FFA034696
:10529800054A934201D1002300E00223184608374B
:1052A800BD4680BD464154004641543380B596B052
:1052B80000AFF860B9601346FB71BB6800221A6042
:1052C800F868FFF758FFF863FB6B002B01DA0B2334
:1052D80030E2A14AFB6B52F82330BB63BB6B002B57
:1052E80001D10C2326E2BB68BA6B1A60FB7923F064
:1052F8000103FB71BB6B1B78002B1AD0BB6B5B786F
:105308001846FEF73BF9034687F8373097F83730E9
:1053180003F00103002B0CD1FB79002B07D097F881
:10532800373003F00403002B01D00A2302E20023E4
:1053380000E2BB6B00221A70FB6BDAB2BB6B5A70CF
:10534800BB6B5B781846FEF733F9034687F83730AE
:1053580097F8373003F00103002B01D00323E9E16C
:10536800FB79002B07D097F8373003F00403002BA4
:1053780001D00A23DEE100233B65396DB86BFFF7E6
:105388003FFF034687F8573097F85730022B49D12B
:1053980000233B641EE0BB6B03F134023B6C1B0132
:1053A80003F5DF7313443B633B6B04331B78002B1B
:1053B80006D03B6B08331846FEF798F9024600E022
:1053C80000223B6C9B0058333B4443F8442C3B6C15
:1053D80001333B643B6C032BDDD900233B643B6CFE
:1053E800002B02D03B6C013B3B643B6C9B00583369
:1053F8003B4453F8443C3B653B6D002B05D0396D6D
:10540800B86BFFF7FDFE034600E0032387F857302B
:1054180097F85730012B05D93B6C01333B643B6C43
:10542800032BE2D997F85730042B01D1012381E1EE
:1054380097F85730012B01D90D237BE1BB6B34332F
:105448000B331846FEF73AF90346B3F5007F01D04F
:105458000D236FE1BB6B343316331846FEF72EF974
:105468000346FB64FB6C002B06D1BB6B343324333F
:105478001846FEF73BF9F864BB6BFA6CDA61BB6B54
:1054880093F84420BB6B9A70BB6B9B78012B05D0BB
:10549800BB6B9B78022B01D00D234BE1BB6B9B7838
:1054A8001A46FB6C02FB03F3FB64BB6B93F84130B9
:1054B8001A46BB6B5A81BB6B5B89002B08D0BB6B50
:1054C8005B891A46BB6B5B89013B1340002B01D0FB
:1054D8000D232FE1BB6B343311331846FEF7EEF87A
:1054E80003461A46BB6B1A81BB6B1B8903F00F037B
:1054F8009BB2002B01D00D231CE1BB6B343313335B
:105508001846FEF7DBF80346BB64BB6C002B06D1DC
:10551800BB6B343320331846FEF7E8F8B864BB6B2E
:1055280034330E331846FEF7C9F80346FB85FB8D66
:10553800002B01D10D23FDE0FA8DFB6C1344BA6BEF
:105548001289120992B21344BB62BA6CBB6A9A42BE
:1055580004D20D23EEE000BF9C030020BA6CBB6AA6
:10556800D31ABA6B5289B3FBF2F37B627B6A002BC6
:1055780001D10D23DEE0032387F857307B6A4FF60D
:10558800F572934202D8022387F857307B6A40F6B7
:10559800F572934202D8012387F857307B6A9A1C28
:1055A800BB6B9A61BB6B3A6D1A62FA8D3B6D1A44FC
:1055B800BB6B5A623A6DBB6A1A44BB6BDA6297F8E6
:1055C8005730032B1ED1BB6B34332A331846FEF7F2
:1055D80075F80346002B01D00D23ABE0BB6B1B898C
:1055E800002B01D00D23A5E0BB6B34332C331846B8
:1055F800FEF77CF80246BB6B9A62BB6B9B699B000B
:105608007B641FE0BB6B1B89002B01D10D2391E04C
:10561800BB6B5A6AFB6C1A44BB6B9A6297F857309B
:10562800022B03D1BB6B9B695B000AE0BB6B9A69D9
:1056380013465B0013445A08BB6B9B6903F00103D4
:1056480013447B64BB6BDA697B6C03F2FF135B0A60
:105658009A4201D20D236DE0BB6B4FF0FF325A61C5
:10566800BB6B5A69BB6B1A61BB6B80221A7197F8C6
:105678005730032B49D1BB6B343330331846FEF710
:105688001DF80346012B40D13B6D01331946B86B19
:10569800FEF7C4FA0346002B37D1BB6B00221A7100
:1056A800BB6B343303F5FF731846FEF707F8034660
:1056B8001A464AF655239A4227D1BB6B343318460B
:1056C800FEF714F803461D4A93421ED1BB6B3433D0
:1056D80003F5F2731846FEF709F80346184A934291
:1056E80013D1BB6B343303F5F4731846FDF7FEFF93
:1056F8000246BB6B5A61BB6B343303F5F67318462D
:10570800FDF7F4FF0246BB6B1A61BB6B97F8572095
:105718001A700C4B1B8801339AB20A4B1A80094B3A
:105728001A88BB6BDA80BB6B074ADA60B86BFEF786
:105738000DFA002318465837BD4680BD52526141C4
:1057480072724161A0030020F403002080B584B088
:1057580000AF786039600923FB737B68002B1CD08D
:105768007B681B68002B18D07B681B681B78002B94
:1057780013D07B689A887B681B68DB889A420CD1B7
:105788007B681B685B781846FDF7F8FE034603F054
:105798000103002B01D10023FB73FB7B002B02D1FB
:1057A8007B681B6800E000233A681360FB7B18469F
:1057B8001037BD4680BD000080B588B000AFF860E6
:1057C800B9601346FB71BB683B6107F110031846CB
:1057D800FFF7D1FCF861FB69002B01DA0B232BE002
:1057E800174AFB6952F82330BB61BB69002B05D00F
:1057F800B869FEF7ABF9BB6900221A70FB68002B89
:1058080002D0FB6800221A70FA680D49FB6941F85A
:105818002320FB68002B02D0FB79012B01D0002349
:105828000AE007F10C0107F1080300221846FFF708
:105838003DFD0346FB75FB7D18462037BD4680BD00
:105848009C03002080B59AB000AFF860B960134699
:10585800FB71FB68002B01D10923A9E1FB7903F057
:105868003F03FB71FA7907F1140107F108031846A1
:10587800FFF71CFD034687F8673097F86730002B61
:1058880040F08D817B69BB61BA6807F11803114646
:105898001846FFF7FFFB034687F8673097F867302D
:1058A800002B18D197F847305BB2002B03DA062398
:1058B80087F867300FE0FB79012B8CBF01230023A9
:1058C800DBB21A4607F1180311461846FDF7F6FF32
:1058D800034687F86730FB7903F01C03002B7FD061
:1058E80097F86730002B17D097F86730042B0ED144
:1058F800FEF740F80346002B06D007F118031846B8
:10590800FFF718F9034600E0122387F86730FB79A0
:1059180043F00803FB7110E0BB7F03F01103002B79
:1059280003D0072387F8673007E0FB7903F0040307
:10593800002B02D0082387F8673097F86730002BD0
:1059480068D1FB7903F00803002B63D0FDF794F8C6
:10595800B865BB6B0E33B96D1846FDF705FFBB6B19
:105968001633B96D1846FDF7FFFEBB6B0B332022CB
:105978001A707B69BA6B11461846FEF753FE7865B4
:105988007B69B96B00221846FEF76BFEBB6B1C33B4
:1059980000211846FDF7E8FE7B690122DA707B6D6D
:1059A800002B37D07B691B6BBB6507F118030022FE
:1059B800796D1846FEF77EFB034687F8673097F83F
:1059C8006730002B26D17B69B96D1846FEF726F99A
:1059D800034687F867307B697A6D013A1A6119E0E6
:1059E80097F86730002B15D1BB7F03F01003002B0D
:1059F80003D0042387F867300CE0FB7903F0020337
:105A0800002B07D0BB7F03F00103002B02D0072334
:105A180087F8673097F86730002B26D1FB7903F0B9
:105A28000803002B03D0FB7943F04003FB717B692B
:105A38001A6BFB685A62BA6BFB689A62FB79012B96
:105A48008CBF01230023DBB21A4607F11803114665
:105A58001846FDF7B1FF0246FB681A61FB681B692F
:105A6800002B02D1022387F8673097F86730002BA4
:105A780040F095807B69BA6B11461846FEF7D2FD57
:105A88000246FB689A60BB6B1C331846FDF72EFE76
:105A98000246FB68DA60FB680022DA627A69FB6812
:105AA8001A607B69DA88FB689A80FB68FA791A754C
:105AB800FB6800225A75FB6800221A62FB68002204
:105AC8009A61FB6830334FF4007200211846FDF7E5
