:020000040800F2
:100000000000022099080008650800086D08000833
:100010006F0800087108000873080008000000005D
:10002000000000000000000000000000750800084B
:100030007708000800000000790800087B08000825
:10004000E9080008E9080008E9080008E9080008CC
:10005000E9080008E9080008E9080008E9080008BC
:10006000E9080008E9080008E9080008E9080008AC
:10007000E9080008E9080008810800088D08000860
:10008000E9080008E9080008E90800080000000085
:10009000000000000000000000000000E908000867
:1000A000E9080008E9080008E9080008E90800086C
:1000B000E9080008E9080008E9080008E90800085C
:1000C000E9080008E9080008E9080008E90800084C
:1000D000E9080008E9080008E90800080000000035
:1000E000E9080008E9080008E90800080000000025
:1000F000000000000000000000000000E908000807
:1001000000000000E9080008E9080008E908000804
:1001100000000000000000000000000000000000DF
:10012000E9080008E9080008E9080008E9080008EB
:10013000E9080008000000000000000000000000C6
:10014000000000000000000000000000E9080008B6
:10015000E9080008E9080008E9080008E9080008BB
:10016000E9080008E908000800000000000000009D
:10017000000000000000000000000000000000007F
:1001800000000000E9080008000000000000000076
:08019000E9080008E908000875
:1001980010B5054C237833B9044B13B10448AFF3B9
:1001A80000800123237010BD2400002000000000FF
:1001B8002839000808B5034B1BB103490348AFF3BE
:1001C800008008BD00000000280000202839000831
:1001D80053B94AB9002908BF00281CBF4FF0FF31A6
:1001E8004FF0FF3000F06AB9ADF1080C6DE904CEAC
:1001F80000F006F8DDF804E0DDE9022304B07047FA
:100208002DE9F047089D0C46002B4ED194468C45AD
:100218008646B2FA82F262D94AB1C2F1200391400D
:1002280020FA03F30CFA02FC194300FA02FE4FEA23
:100238001C471FFA8CF6B1FBF7F44FEA1E4307FB85
:10024800141143EA014304FB06F199420AD91CEB55
:10025800030304F1FF3080F01281994240F20F81CC
:10026800023C6344591A1FFA8EF3B1FBF7F007FBFF
:10027800101143EA014300FB06F69E420AD91CEB23
:10028800030300F1FF3180F0FC809E4240F2F980C8
:10029800634402389B1B40EA044000211DB1D3404F
:1002A8000022C5E90032BDE8F0878B4205D90DB1BF
:1002B800C5E9000100210846F5E7B3FA83F10029F2
:1002C80046D1A34202D39042C0F0F080861A64EB74
:1002D80003030120002DE6D0C5E90063E3E7002A07
:1002E80040F09080A1EB0C044FEA1C481FFA8CF7F1
:1002F8000121B4FBF8F64FEA1E4308FB164443EA13
:10030800044307FB06F0984208D91CEB030306F1E7
:10031800FF3402D2984200F2CD8026461C1A1FFAFA
:100328008EF3B4FBF8F008FB104443EA044300FBE7
:1003380007F79F4208D91CEB030300F1FF3402D2F0
:100348009F4200F2B0802046DB1B40EA0640A5E74A
:10035800C1F120068B4022FA06F71F4320FA06FC5B
:1003680004FA01F343EA0C03F44000FA01F8380CEC
:100378004FEA1349B4FBF0FE1FFA87FC00FB1E444A
:1003880049EA04440EFB0CF9A14502FA01F20AD924
:100398003C190EF1FF3A80F08480A14540F281803B
:1003A800AEF1020E3C44A4EB09041FFA83F9B4FB36
:1003B800F0F300FB134449EA044403FB0CFCA44596
:1003C80007D93C1903F1FF3067D2A44565D9023B30
:1003D8003C4443EA0E40A0FB0293A4EB0C049C426D
:1003E800CE469C4651D34ED055B1B8EB0E0364EBC4
:1003F8000C0404FA06F6CB401E43CC40C5E9006461
:10040800002150E7C2F1200320FA03F10CFA02FCA4
:1004180024FA03F394400C434FEA1C4800FA02FE06
:100428001FFA8CF7B3FBF8F008FB1031230C43EAF2
:10043800014300FB07F1994208D91CEB030300F1C3
:10044800FF362CD299422AD9023863445B1AA4B2E7
:10045800B3FBF8F108FB113344EA034401FB07F34B
:10046800A34208D91CEB040401F1FF3613D2A342BE
:1004780011D902396444E41A41EA004139E70446D3
:10048800F0E6084606E7C845AED2B9EB020E63EBC4
:10049800070C0138A8E73146EDE7034699E73046EF
:1004A800D4E7D6467FE7634402384DE7064623463D
:1004B80008460FE7023E634430E700BF704700BFBD
:1004C80010B594B0102200210AA803F0FDF91422F7
:1004D800002103A803F0F8F9204B002101911A6CC0
:1004E80042F080521A641B6C03F080530193019B05
:1004F8001B4B02911A6842F440421A601B6803F4CD
:1005080040430293029B01224FF480330224CDE939
:1005180008234FF48003CDE90E431921A823CDE920
:10052800101308A804231294139300F04DFD08B18A
:1005380072B6FEE70F23CDE903344FF48053CDE9BB
:1005480006300590214603A800F020FF08B172B6D6
:10055800FEE700F0E7FE14B010BD00BF003802400F
:100568000070004070B5ADF51A7D00246D4D00F0A7
:10057800E7F9FFF7A5FF142200210EA803F0A4F95C
:1005880004942B6B684843F080032B632B6B03F0B8
:1005980080030493049B05942B6B43F001032B63A6
:1005A8002B6B03F001030593059B06942B6B43F01B
:1005B80004032B632B6B03F004030693069B079439
:1005C8002B6B43F002032B632B6B03F0020307939F
:1005D80022462021079B00F0E9FC224653481021BF
:1005E80000F0E4FC012620234F480EA9CDE90E3681
:1005F800CDE9104400F014FC10234C480EA9CDE9B5
:100608000E36CDE9104400F00BFC03942B6B43F439
:1006180000132B632B6B03F400132246214603932C
:100628000E20039B00F0DEF90E2000F00DFA2246A2
:1006380021460F2000F0D6F90F2000F005FA3C48BB
:100648003C4A84624FF48273C0E900234FF400717E
:100658003023C0E906130A23C0E90244C0E9044470
:10066800C0E90844C36200F0FFFF08B172B6FEE7B4
:1006780001F07CF9304B08AC03F11805186859688B
:10068800224603C20833AB421446F7D10A232B494A
:100698002B488DF80430002202F02AFD48B1224C84
:1006A8002046202100F087FC4FF4FA7000F074F91E
:1006B800F6E7244902220EA802F042FD48B11A4C7E
:1006C8002046202100F077FC4FF4FA7000F064F91E
:1006D800F6E711990EA802F05AFF119B8BB902ABED
:1006E800182208A90EA802F02BFE0EA802F03EFF61
:1006F8000D4C2046202100F05EFC642000F04CF9EF
:10070800F7E702AB012201A90EA802F019FE02AB1D
:10071800182208A90EA802F013FE119B002BE4D1A1
:10072800DDE700BF00380240000002400008024038
:1007380000010020003800404939000890030020DB
:100748005C0100204039000872B6FEE782B00C4B0D
:10075800002100915A6C42F480425A645A6C02F4A7
:1007680080420092009A01911A6C42F080521A64F9
:100778001B6C03F080530193019B02B0704700BFCC
:100788000038024070B5064688B01422002103A83C
:1007980003F09AF832682B4B9A4251D1002503F5A1
:1007A800003301951A6C284C42F480421A641A6C82
:1007B80002F480420192019A02951A6B42F00202F9
:1007C8001A631B6B03F002030293029B4FF4604110
:1007D8000223CDE9031303200523CDE9060303A96A
:1007E8001A4800F01DFB1A4B2046C4E900354FF4A7
:1007F8008063C4E90255C4E90435C4E90655C4E96F
:10080800085500F059F908B1FFF79EFF114AF46442
:10081800A663114C0023C4E900234022C4E9022343
:1008280020464FF48062C4E90423C4E90633C4E9CE
:10083800083300F041F908B1FFF786FFB464A663F6
:1008480008B070BD00380040A0000020000402403D
:1008580058600240706002404000002008B500F077
:1008680031FEFEE7FEE7FEE7FEE7FEE7704770476A
:10087800704700F07FB80000014800F013BA00BFCD
:10088800A0000020014800F00DBA00BF4000002081
:10089800DFF834D000F026F80C480D490D4A002343
:1008A80002E0D458C4500433C4188C42F9D30A4A1D
:1008B8000A4C002301E013600432A242FBD303F088
:1008C8000BF8FFF74FFE70470000022000000020E1
:1008D80024000020D43D000824000020FC0500204E
:1008E800FEE70000034AD2F8883043F47003C2F8E8
:1008F8008830704700ED00E038B50E4B1A784FF499
:100908007A73B3FBF2F30C4A05461068B0FBF3F0B8
:1009180000F0A8F8044658B90F2D09D80246294610
:100928004FF0FF3000F05EF8044B20461D6038BDE4
:100938000120FCE70400002000000020080000203F
:1009480008B50B4B1A6842F400721A601A6842F430
:1009580080621A601A6842F480721A60032000F0FC
:100968002FF80F20FFF7C8FFFFF7F0FE002008BDA3
:10097800003C0240034A044B11681B780B44136087
:10098800704700BF5801002004000020014B186880
:10099800704700BF5801002038B50446FFF7F6FF3E
:1009A800631C1CBF054B1B78054618BFE418FFF7EE
:1009B800EDFF431BA342FAD338BD00BF040000205B
:1009C8000749CA6822F4E0620302120403F4E063F0
:1009D800120C134343F0BF6343F40033CB607047FA
:1009E80000ED00E0164B30B5DC68C4F30224C4F116
:1009F8000703251D042B28BF0423062D4FF0FF35C0
:100A08008CBF033C002405FA03F321EA0303A54045
:100A180022EA0502A340002843EA0203ACBF00F122
:100A28006040084A4FEA0313B8BF00F00F00DBB27A
:100A3800AABF00F56140135480F8003330BD00BFF1
:100A480000ED00E014ED00E0002807DB044A41094E
:100A5800012300F01F00834042F82130704700BF97
:100A680000E100E00138B0F1807F0BD24FF0E023C5
:100A7800054A5861F02182F8231000200722986166
:100A88001A6170470120704700ED00E0036810B557
:100A9800084C0246D9B210391820B1FBF0F0205C9E
:100AA800D06523F47F7020F003005F2988BF0430ED
:100AB800906510BD7139000870B50446FFF766FFF0
:100AC8000546002C60D0022384F8353022680023C4
:100AD80084F83430136823F0010313602268136824
:100AE800D8072ED413683248A1691840D4E90135D3
:100AF8002B43E5682B4325692B4365692B43E5693F
:100B08000B432B43256A2B430343606A042802BF27
:100B1800D4E90B5635432B4313605369042823F05B
:100B2800070343EA000335D1A06AE56A03438DB39E
:100B380091B9012820D030F002012BD1E90129D543
:100B48001DE0FFF723FF401B0528C7D920230320FA
:100B5800636584F8350070BDB1F5005F16D10328D0
:100B680018D801A151F820F0870B0008450B0008A0
:100B7800870B0008810B0008B5F1C07F0AD140231C
:100B88006365012384F835300120E4E70228F6D9AB
:100B98000328D3D053612046FFF778FFE26D3F2347
:100BA8009340836000200123606584F83530D2E7E4
:100BB8003F8010F070B590F83440866D012C30D02D
:100BC800012480F8344090F83540012C4FF000049F
:100BD80025D1022580F8355044650468256825F438
:100BE8008025256063608368402B0EBFA260A160EA
:100BF800E260C26D08BFE1603F239340B3602368A1
:100C080043F016032360036C1BB1236843F0080309
:100C18002360236843F001032360002070BD80F83F
:100C280034400220FAE770B50446866DFFF7AEFE41
:100C380094F83530022B054606D0802363650120E1
:100C4800002384F8343070BD23681A6822F0160235
:100C58001A605A6922F080025A61226C0AB9A26CA1
:100C68001AB11A6822F008021A601A6822F0010202
:100C78001A602368186810F0010007D1E26D3F235D
:100C88009340B360012384F83530D9E7FFF77EFE3F
:100C9800401B0528EDD920230320636584F835001F
:100CA800CEE70000F7B5002301935C4B856D1F6804
:100CB800C36D2E6808229A40324204460CD001685F
:100CC8000868400708D5086820F004000860AA6092
:100CD800626D42F00102626501229A40324208D0F8
:100CE80021684969090641BFAA60626D42F00202A3
:100CF800626504229A40324208D021680968880750
:100D080041BFAA60626D42F00402626510229A40F7
:100D1800324210D02368196809070CD5AA601A68EE
:100D2800500337D51B68190301D4236C00E0A36C6A
:100D38000BB120469847E16D20228A4032423AD0D2
:100D480023681868C60636D5AA6094F83520052A9F
:100D58001A6827D122F016021A605A6922F0800216
:100D68005A61226C0AB9A26C1AB11A6822F00802F8
:100D78001A603F238B40AB60012384F83530002391
:100D880084F83430236D002B45D0204603B0BDE8ED
:100D9800F04018471A68D2055EBF1A6822F00802A8
:100DA8001A60C2E7500327D51B68190331D4636C56
:100DB8000BB120469847636D6BB3636DDA0719D59D
:100DC80022684FF41653B7FBF3F7052384F8353040
:100DD800136823F001031360019B0133BB420193A5
:100DE80002D81368DB07F7D4012384F835300023D1
:100DF80084F83430E36CC6E71A6812F4807208D1BC
:100E0800196821F010011960012384F8353084F83D
:100E18003420E36BCCE703B0F0BD00BF0000002036
:100E28002DE9F74FDFF880915D4A00230D68012412
:100E38009C4004EA0506AC4340F0A3804D680327B4
:100E480005F003044FEA430807FA08FC671E012F60
:100E58006FEA0C0C34D8876807EA0C0ECF6807FADB
:100E680008F747EA0E078760476827EA060EC5F3C2
:100E780000179F4047EA0E074760C76807EA0C0E4D
:100E88008F6807FA08F747EA0E07022CC76019D1DE
:100E98004FEAD30A00EB8A0A03F0070BDAF820704E
:100EA8004FEA8B0B4FF00F0E0EFA0BFE27EA0E0ED1
:100EB8000F6907FA0BF747EA0E07CAF8207001E036
:100EC800032CDAD1076804FA08F407EA0C073C4354
:100ED80015F4403F046054D000240194D9F84440EC
:100EE80044F48044C9F84440D9F8444023F0030747
:100EF80007F1804704F4804407F59C37019403F018
:100F0800030C019CD7F808E04FEA8C0C0F2404FA74
:100F18000CF42EEA040E234CA04239D004F5806468
:100F2800A04237D004F58064A04235D004F580642F
:100F3800A04233D004F58064A04214BF07240424DF
:100F480004FA0CF444EA0E04BC609468F74315F400
:100F5800801F0CBF3C4034439460D46815F4001FD4
:100F68000CBF3C403443D460546815F4003F0CBFB8
:100F78003C40344354601468ED0354BF3C40344350
:100F880014600133102B7FF451AF03B0BDE8F08F2C
:100F98000024D5E70124D3E70224D1E70324CFE7CF
:100FA800003C014000000240003802400AB1816163
:100FB80070470904FBE7436901EA030221EA0301D8
:100FC80041EA0241816170472DE9F341044640B38B
:100FD8000368DE0710D423689D075BD423681907CC
:100FE80000F19D8023685A0700F1BD80A369002B9A
:100FF80040F0248100202CE08D4B9A6802F00C020E
:10100800042A07D09A6802F00C02082A0BD15B6800
:10101800590208D5864B1B689A03DCD56368002BF8
:10102800D9D1012015E06368814DB3F5803F13D114
:101038002B6843F480332B60FFF7A8FC7C4E0546F1
:1010480033689B03C7D4FFF7A1FC401B6428F7D97A
:10105800032002B0BDE8F081B3F5A02F04D12B68BE
:1010680043F480232B60E3E72A6822F480322A6065
:101078002A6822F480222A60002BDDD1FFF786FC43
:1010880006462B689F03A6D5FFF780FC801B6428C3
:10109800F7D9DDE7664B9A6812F00C0F07D09A680B
:1010A80002F00C02082A11D15B685D020ED4604A76
:1010B8001368990702D5E368012BB2D11368216937
:1010C80023F0F80343EAC103136087E7E268594B4A
:1010D800B2B101221A60FFF759FC554D06462B683C
:1010E8009B0707D52B68226923F0F80343EAC2035C
:1010F8002B6073E7FFF74AFC801B0228EFD9A7E7AC
:101108001A60FFF743FC4A4E054633689F077FF590
:1011180065AFFFF73BFC401B0228F6D998E76269E8
:10112800444B82B10122C3F8802EFFF72FFC404EBA
:101138000546736F9B073FF555AFFFF727FC401B2C
:101148000228F6D984E7C3F8802EFFF71FFC384E33
:101158000546736F9F077FF545AFFFF717FC401BE8
:101168000228F6D974E7324B1A6C12F0805228D153
:1011780001921A6C42F080521A641B6C03F080537F
:101188000193019B01272C4D2B68D8051BD5A3681B
:10119800274D012B27D12B6F43F001032B67FFF756
:1011A800F5FB234E054641F28838336F9A0739D547
:1011B800002F3FF41BAF1E4A136C23F080531364B7
:1011C80014E70027DFE72B6843F480732B60FFF7F1
:1011D800DDFB06462B68D905D9D4FFF7D7FB801B62
:1011E8000228F7D934E7052B04D12B6F43F0040309
:1011F8002B67D0E72A6F22F001022A672A6F22F0B4
:1012080004022A67002BCAD1FFF7C0FB41F28838D5
:1012180006462B6F9B07CBD5FFF7B8FB801B4045D5
:10122800F7D915E7FFF7B2FB401B4045BDD90FE7DB
:10123800003802400000474200700040374DAA685D
:1012480002F00C02082A3ED0022B354B4FF0000268
:101258001A662BD1FFF79AFB06462B6899011FD413
:10126800D4E907321343626A43EA8213E26A43EA23
:101278000263A26A5208013A43EA02436B60284BB0
:10128800264D01221A66FFF781FB04462B689A0156
:101298003FF5B0AEFFF77AFB001B0228F6D9D7E678
:1012A800FFF774FB801B0228D7D9D1E6FFF76EFB46
:1012B80004462B689B017FF59DAEFFF767FB001B7B
:1012C8000228F6D9C4E6012B3FF4ABAE6B68E2699D
:1012D80003F4800191427FF4A4AE216A03F03F0237
:1012E8008A427FF49EAE616A47F6C0721A40B2EB3A
:1012F800811F7FF496AEA26A520803F44031013A86
:10130800B1EB024F7FF48DAEE26A03F07063B3EB8A
:10131800026F14BF012000209BE600BF0038024086
:1013280000004742014B0122DA647047000047423F
:10133800134908B58B6803F00C03042B1CD0082B49
:101348001CD14A684B68496813F4800314BF0D48E0
:101358000D48C1F3881118BF002302F03F02A1FB1A
:101368000001FEF735FF064B5B68C3F30143013309
:101378005B00B0FBF3F008BD0248FCE70248FAE75F
:101388000038024040787D010024F4002DE9F04146
:101398000D46044610B90120BDE8F081434B1A6898
:1013A80002F007028A4228D321688F072DD4C80784
:1013B80040D43E4B1A6802F00702AA4265D8226858
:1013C80051076BD4130707D5394A2169936823F469
:1013D800604343EAC1039360FFF7AAFF344B354AE1
:1013E8009B68C3F30313D35CD840334B1860334B6B
:1013F8001868FFF781FA0020CEE7CAB21A701B6896
:1014080003F007038B42C6D1CEE7294B11F0040F36
:101418001EBF9A6842F4E0529A600E0742BF9A686B
:1014280042F460429A609A68A06822F0F00202438F
:101438009A60BCE762681E4B012A1CD11B6813F432
:10144800003FA8D01A4EB36823F003031343B360D8
:10145800FFF79CFA41F288380746B368626803F0E0
:101468000C03B3EB820FA4D0FFF790FAC01B4045E2
:10147800F3D9032090E7911E01291B6802D813F0C5
:10148800007FDEE713F0020FDBE7EAB21A701B6891
:1014980003F00703AB427FF47EAF90E70449E068AE
:1014A8008B6823F4E05303438B608BE7003C0240D6
:1014B80000380240613900080000002008000020C0
:1014C8007047000010B5044CE3681B0603D5FFF70E
:1014D800F7FF8023A37310BD003802402DE9F347BE
:1014E8001F46894690460446FFF750FA0A9D3D4438
:1014F8002D1AFFF74BFA264B1E68C6F3CB366E4300
:10150800824601962268936839EA03030CBF0123D7
:101518000023434501D100202EE07B1CF3D0FFF7C8
:1015280035FAA0EB0A00A84229D323685A6822F0AA
:10153800E0025A606268B2F5827F0AD1A268B2F509
:10154800004F02D0B2F5806F03D11A6822F0400232
:101558001A60A26AB2F5005F07D11A6822F4005235
:101568001A601A6842F400521A60012384F8513054
:10157800002384F85030032002B0BDE8F087019AB8
:10158800019B002A03F1FF33019308BF1546B9E711
:1015980000000020F0B585B00B4600920E461746B5
:1015A800022101220446FFF799FF054628B1636D21
:1015B80043F020036365032515E0124B1868124BAE
:1015C800B0FBF3F04FF47A73584363680390B3F5B4
:1015D800827F0BD1009733462A4680212046FFF7A9
:1015E8007DFF0028E3D1284605B0F0BD039B002B02
:1015F800F9D0039B013B039323689B681B06F5D432
:10160800F1E700BF0000002000366E0137B50B4639
:101618004168B1F5827F044608D00092012100227A
:10162800FFF75CFFD0B9002003B030BD8168B1F589
:10163800004F02D0B1F5806F07D125682868B1F551
:10164800806F20F04000286004D0009280210022A2
:101658002046E5E7009201210022F9E7636D43F097
:10166800200363650320DFE710B50446002855D042
:10167800436A002B4ED14268B2F5827F00D0C36125
:101688000023A36294F8513003F0FF0223B984F8D1
:1016980050202046FFF776F82168A068A269022347
:1016A80084F851300B6823F040030B60636800F442
:1016B800044003F482730343E06800F400600343CA
:1016C800206900F002000343606900F00100034351
:1016D80002F400700343E06900F038000343206A15
:1016E80000F080000343A06A00F4005003430B603D
:1016F800636A120C03F0100302F004021A434A60F2
:10170800CB6923F40063CB6100200123606584F872
:10171800513010BD0023C0E90433B1E70120F8E7D8
:1017280070B5044690F85000012870D0012084F864
:10173800500094F8510066680128C5B207D0B6F584
:10174800827F62D1A06800285FD1042D5DD1002975
:1017580033D0002A31D0002B2FD094F85100A38623
:10176800042818BF05204FF0000518BF84F8510061
:101778006565E386E387A38794F85130254E216396
:10178800042B254BE06C2549A26318BF1946244B4E
:1017980018BF3346C4E91055C0E90F31214B216801
:1017A800C0E91335E38F0C319BB2FFF703FA034608
:1017B80040B1636D43F0100363650120002384F892
:1017C800503070BD2268A06C516841F00101516031
:1017D800C0E90F33C0E91333E38E216B9BB20C329F
:1017E800FFF7E8F90028E4D123681A6852065EBFBB
:1017F8001A6842F040021A605A6842F020025A60A1
:101808005A6842F002025A60D8E70220D6E702205E
:10181800D7E700BF1B190008871800087B180008C5
:10182800B51800089318000838B50446806CA0B9AC
:101838000025E06C38B1FFF7F6F920B1636D43F08D
:101848001003636501252268536823F0030353607E
:10185800012384F85130284638BDFFF7E4F9002801
:10186800E6D0636D43F0100363650125E1E7704737
:10187800704708B5806BFFF7FBFF08BD704708B5D8
:10188800806BFFF7FBFF08BD7047806B026808B5E7
:10189800536823F003035360436D43F0100343651B
:1018A800012380F85130FFF7EFFF08BD38B5054632
:1018B800846BFFF76BF82B681B68DB05024624D4A2
:1018C8002368596821F020015960A168C9B9616885
:1018D800B1F5827F15D1596821F00301596020467E
:1018E8006421FFF793FE08B1202363650023E38793
:1018F800012384F85130636D3BB12046FFF7C4FFE4
:1019080038BD596821F00101E8E72046FFF7AFFF2D
:10191800F6E738B50546846BFFF738F82B681B687F
:10192800DB0502461ED421684B6823F020034B6078
:1019380020466421FFF72EFE18B1636D43F02003A3
:1019480063652268536823F0030353600023E3862A
:10195800E387012384F85130636D1BB12046FFF7FC
:1019680093FF38BD204600F013F9FAE708B503499C
:10197800034801F047FF034B187008BD900300208F
:101988000C000020940300200020704700F008B9E4
:1019980000F096B900F09AB900F0DAB900F02ABA66
:1019A800094B1B681A6822F040021A601A6822F074
:1019B80038021A601A6842EAC0021A601A6842F0CD
:1019C80040021A60704700BF00010020054B1B68E9
:1019D80018739A68D107FCD59A681206FCD4187B4C
:1019E800704700BF0001002008B5FF20FFF7EEFF99
:1019F800FF20FFF7EBFFFF28FAD108BD020638B534
:101A080004460D4607D500217720FFF7F7FF012888
:101A180033D804F07F041B4B10229A614FF48012D4
:101A28009A61FFF7E1FFFF282AD12046FFF7CEFF92
:101A3800280EFFF7CBFFC5F30740FFF7C7FFC5F335
:101A48000720FFF7C3FFE8B2FFF7C0FF402C15D00F
:101A5800482C14BF01208720FFF7B8FF4C2C02D177
:101A6800FF20FFF7B3FF0A24FF20FFF7AFFF0306AD
:101A780003D5013C14F0FF04F6D138BD9520EBE7FF
:101A8800FF20FAE70008024073B5204E1346FF22F4
:101A98008DF80720F26C1568B26C1468226822F081
:101AA800010222602A6822F001022A602268D20715
:101AB8001BD42A68D20718D42A68C0B922F4007245
:101AC8002A602A6842F480622A60226822F4C0628E
:101AD80022600A460DF107010C48FFF721FE96F82F
:101AE8005130012BFBD102B070BD00BFDEE722F4FC
:101AF800C0622A60226822F400722260226842F4DE
:101B0800806222600DF10702E6E700BF00010020B5
:101B180070B506460D46FFF767FFFF28044619D142
:101B28002846FFF753FFFD2D16D04FF400723146BB
:101B38000120FFF7A9FF2046FFF748FF2046FFF7DF
:101B480045FF2046FFF742FF00F01F00431F5842A1
:101B5800584170BD0020FCE70120FAE738B504467B
:101B68000D46FF20FFF732FFFF28FAD0FE280CD1E0
:101B7800AAB221460020FFF787FFFF20FFF726FFC4
:101B8800FF20FFF723FF012038BD0020FCE70000FD
:101B9800024B834201D1FFF747BE70470001002086
:101BA800F7B5444E1023B3610620FFF7F9FE4FF452
:101BB8008013B3610A25FF20013DFFF707FF15F0E9
:101BC800FF05F8D129464020FFF718FF01280446F1
:101BD80011D00024384B394D1C701027B7612B7871
:101BE800002C59D003F0FE0301202B70FFF7D8FE1C
:101BF800287803B0F0BD4FF4D5714820FFF7FEFEFA
:101C0800012832D101AD2F460424FF20FFF7DEFE64
:101C1800013C14F0FF0407F8010BF6D19DF80630DB
:101C2800012BD6D19DF80730AA2BD2D14FF0804195
:101C3800E920FFF7E3FE01460028F7D17A20FFF7F5
:101C4800DDFE0028C5D10424FF20FFF7BFFE013CBC
:101C580014F0FF0405F8010BF6D19DF8043013F0D9
:101C6800400F0CBF04240C24B4E72946E920FFF7F1
:101C7800C5FE012896BF02244125E92500212846F2
:101C8800FFF7BCFE0028F9D14FF400715020FFF790
:101C9800B5FE00289DD19DE7DB0705D44FF48013DE
:101CA800B361FFF7A1FEB7612B7843F001032B70F6
:101CB8009EE700BF00080240950300202000002096
:101CC800014B1878704700BF2000002038B50D463A
:101CD8001C4611468BB31B4B1B78DA072FD41A4BC3
:101CE8001B781B0758BF4902012C12D15120FFF75E
:101CF80085FE38B94FF400712846FFF72FFFB0FA78
:101D080080F46409114B1022201E9A6118BF01202B
:101D180038BD5220FFF772FE0028F3D14FF400714E
:101D28002846FFF71BFF18B1013C05F50075F5D1F2
:101D380000214C20FFF762FEE4E70420E8E70320D7
:101D4800E6E700BF200000209503002000080240BD
:101D580070B50E4615461C46002B3ED0224B1A780D
:101D6800D0073CD41B7859073BD4204B1B781A0763
:101D780058BF6D02012C12D129465820FFF73EFEAC
:101D880048BBFE213046FFF7C3FEB0FA80F4640971
:101D9800174B1022201E9A6118BF012070BD13F046
:101DA800060F03D02146D720FFF728FE29465920E1
:101DB800FFF724FE0028EBD1FC213046FFF7A8FEF0
:101DC80018B1013C06F50076F6D1FD210020FFF799
:101DD8009FFE0028DCD10124DAE70420DEE7032097
:101DE800DCE70220DAE700BF20000020950300208E
:101DF800000802407FB56E4B1C7814F001041546AC
:101E080040F0D4800E2900F2CF80DFE801F00814FA
:101E18004D51CDCDCDCDCDCD9B9FAEB1C100FFF7FE
:101E2800E3FDB0F1FF0418BF0124624B10229A6150
:101E3800204604B070BD00214920FFF7DFFD08B13E
:101E48000124F2E710216846FFF788FE0028F7D042
:101E58009DF800109DF809309DF80820890901298E
:101E680006D1013303EB02239BB29B022B60DCE714
:101E78009DF807109DF80A00920902EB81029DF86F
:101E88000610890201F4406101320A449DF80510E8
:101E98005B0001F00F0101EBD01103F006030B44C6
:101EA800073B02FA03F3E1E74FF400731380BCE742
:101EB800414E317811F004011CD00021CD20FFF7EC
:101EC8009DFD0028BCD1FF20FFF780FD102168464A
:101ED800FFF744FE0028B3D03026FF20013EFFF76D
:101EE80075FD16F0FF06F8D19DF80A201023120997
:101EF8009340BBE74920FFF781FD0028A0D11021BE
:101F08006846FFF72BFE00289AD032789DF80A30F1
:101F18009DF80B1092070AD59DF80D205B0003F081
:101F28007E0303EBD11392090133013AE0E7CA00BB
:101F380002F01802C3F3840302EB5112013302FBCF
:101F4800033393E71C4B1B7813706EE7002149207D
:101F5800FFF754FD00287FF473AF10212846FFF7E0
:101F6800FDFDB0FA80F464095FE700214A20EFE73D
:101F780000217A20FFF742FD00287FF461AF2E1D73
:101F8800FF20FFF723FD05F8010BAE42F8D14CE71F
:101F98000021CD20FFF732FD00287FF451AFFF204C
:101FA800FFF714FD4021D9E704243EE703243FE767
:101FB800200000200008024095030020034B1A1857
:101FC80003EB8003107A5B685B681847F005002014
:101FD80038B5084D2B5C04464BB905EB80022B182D
:101FE8005268187A1268904710B901232B550020BF
:101FF80038BD00BFF005002030B4054C251804EBAF
:10200800800460688468287AA44630BC604700BFB2
:10201800F005002030B4054C251804EB80046068F6
:10202800C468287AA44630BC604700BFF005002089
:10203800054B10B41C1803EB8003207A5B685DF82D
:10204800044B1B69184700BFF00500200068704763
:102058000B0A017043700B0C090E8370C170704736
:10206800024400F8011B9042FBD17047154BF0B5B4
:10207800002422461D461E686EB10768BE420BD179
:102088005F688668B74207D19F684669B74203D13F
:1020980069B110200AE001240132052A03F1100376
:1020A800E9D16CB9022914BF12200020F0BD05EB5C
:1020B80002139889A0F58073584258410001F5E74A
:1020C8000020F3E798050020F0B51D4C07680023B1
:1020D80022462568BD4207D166688568AE4203D1AD
:1020E800A6684569AE4214D00133052B04F11004EB
:1020F800EFD100231E0102EB03149559BDB9975186
:10210800866840696660A060A58131B14FF480712E
:1021180008E002EB0310808971B902EB0311898989
:10212800013189B202EB0312581C9181F0BD0133D1
:10213800052BDFD10020F9E70028E7D0FAE700BF38
:10214800980500200138042815D80C4A010102EB33
:1021580000108389B3F5807F04D100238381002395
:10216800535006E0002BFAD0013B9BB28381002B31
:10217800F5D0002070470220704700BF9805002066
:1021880010B50023054A194652F82340844208BF77
:1021980042F823100433142BF6D110BD9805002003
:1021A80083690239023B8B4283BF4389C06A01FBC2
:1021B800030000207047C36A026804335289490A41
:1021C800B1FBF2F1186830B1814202D3091A083321
:1021D800F8E7586808447047034600F10B010020EF
:1021E800C20142EA500213F8010B50FA82F28B4204
:1021F800D0B2F5D17047036810B553B119460A46F5
:1022080011F8014B1F2C0CD93A2CF8D11978302928
:1022180002D04FF0FF3005E001339A42F9D1013284
:102228000260002010BD38B50D46044618B90920D3
:1022380000232B6038BD0368002BF8D01A78002AD9
:10224800F5D08188DA889142F1D15878FFF7B6FE47
:1022580010F00100EBD12368EBE7F8B5C37804462A
:102268000BB90020F8BD056B00F134070123407855
:102278002A463946FFF7CEFE90B9636AE269E070F4
:10228800EB1A9342EDD2A678012EEAD9E369607879
:102298001D442A4601233946FFF7BCFE013EF3E7F9
:1022A8000120DFE701380A4411F8013B00F8013F3B
:1022B8009142F9D17047C2F307238A76CB76037827
:1022C800032B01BF120C0A75120A4A75704738B5FC
:1022D800036B8B4205460C4610D0FFF7BEFF60B972
:1022E80022466878012305F13401FFF785FE0028AE
:1022F8001CBF4FF0FF3401202C6338BD0020FCE7E1
:10230800002310B5C3704FF0FF3303630446FFF793
:10231800DEFF034618BBB4F832124AF65522914242
:102328001FD194F83420E92A05D0626B0F4902F0D6
:10233800FF128A4217D104F16A00FFF787FE0C4AA0
:1023480020F07F40904208D004F18600FFF77EFE1F
:10235800084BC31A18BF01235B00184610BD04239D
:10236800FBE70323F9E70223F7E700BFEB00900040
:102378004641540046415433F0B5002385B00B6004
:102388000F461646FFF737FF051EC0F212818C4B29
:1023980053F82540002C00F00E813C60237806F0AD
:1023A800FE066BB16078FFF709FEC70708D4002E58
:1023B80000F0DA80400740F1D7800A2005B0F0BD70
:1023C8000023E8B223706070FFF702FEC10700F136
:1023D800F4800EB14207F0D400212046FFF790FFA9
:1023E800022840F0CB806F4604F5FD7304F23A21D1
:1023F8003A4613F8040C10B11846FFF727FE1033BD
:102408008B4242F8040BF4D1002557F8046B002ED8
:1024180000F0AC8031462046FFF772FF012800F239
:10242800A680B4F83F30B3F5007F40F0AD80B4F833
:102438004A1021B904F15800FFF708FE014694F844
:102448004420E161531E012BA27000F29D8094F894
:1024580041506581002D00F097806B1E2B4240F0A3
:102468009380B4F8457027813B0740F08D80B4F81D
:10247800470018B904F15400FFF7E8FDB4F84230FA
:10248800002B00F0818001FB02FE03EB171CF444D3
:10249800604579D3A0EB0C00A842B0FBF5F273D3EA
:1024A8004FF6F570824273D840F6F575AA428CBF94
:1024B800022501250232334406EB0C00032DA261EC
:1024C80026626362E06265D1B4F85E303B435BD15B
:1024D80004F16000FFF7BAFD920002F2FF12B1EBBF
:1024E800522FA06250D34FF0FF33C4E90433032DB9
:1024F8004FF0800323712BD1B4F86430012B27D11E
:10250800711C2046FFF7E3FE10BBB4F8322220719D
:102518004AF655239A421BD104F13400FFF796FD81
:10252800284B984214D104F50670FFF78FFD03F18C
:10253800FF5303F500532033984209D104F507707F
:10254800FFF784FD606104F50870FFF77FFD2061E7
:102558001D4A2570138801339BB21380E3801B4BFF
:10256800E3602046FFF70CFE002027E70320013533
:10257800042D7FF44AAF042806D101E0042801D1D4
:1025880001201BE7012801D90D2017E7002648E79D
:1025980003258FE7002FF7D0022D03EB0E004FEA3B
:1025A80042031BBF9B1802F001021A4602EB5302BA
:1025B80093E70B2002E70C2000E70320FEE600BFAC
:1025C800EC05002052526141E805002096030020E6
:1025D80001292DE9F84305460E4614466ED983694C
:1025E8008B426BD90378022B3DD0032B4DD0012BA6
:1025F80064D101EB5108416A01EB5821FFF767FEEE
:1026080038BB05F1340708F10109C8F3080816F0CA
:1026180001061FBF17F80820230103F0F00302F09A
:102628000F0214BF1343E3B207F80830696A0123A5
:10263800EB7001EB59212846FFF749FE48B9C9F369
:10264800080946B1C4F3071407F809400123EB70E1
:102658000020BDE8F88317F80930C4F3032423F0F9
:102668000F031C43F0E7416A01EB1621FFF72FFE29
:102678000028EED1760005F1340306F4FF769A19A6
:102688009C55C4F307245470E0E7416A01EBD61166
:10269800FFF71DFE0028DCD1B60005F1340306F46F
:1026A800FE7633441846FFF7D1FC24F0704400F05E
:1026B800704121431846FFF7CBFCC7E70220C8E763
:1026C800F8B50446FFF7C9FD0546002842D123782E
:1026D800032B37D12779012F34D104F13406014671
:1026E8004FF4007230465523FFF7BAFC84F83232B3
:1026F800AA2384F8333252234122722184F83430D9
:1027080084F83530612384F8363084F81B3284F835
:10271800372084F8181284F8191284F81A2261698B
:1027280004F50770FFF794FC216904F50870FFF7BA
:102738008FFC226A6078013222633B463146FFF7FC
:1027480069FC2571002260781146FFF771FC00389A
:1027580018BF0120F8BD03284B8B04BF8A8A43EABF
:102768000243184670470129F8B506460C464ED96B
:10277800836999424BD20378022B29D0032B34D09A
:10278800012B44D101EB5105416A01EB5521FFF7BB
:102798009EFD10B14FF0FF30F8BD6F1C716AC5F394
:1027A8000805354401EB5721304695F83450FFF7BA
:1027B8008EFD0028EED1C7F30807374497F8343068
:1027C80045EA0320E3074CBF0009C0F30B00E3E729
:1027D800416A01EB1421FFF77AFD0028DAD1640081
:1027E80004F4FF743444A08ED6E7416A01EBD41197
:1027F800FFF76DFD0028CDD1A40006F1340004F4E4
:10280800FE742044FFF722FC20F07040C4E701204A
:10281800C2E7F8B50C46012C0568064611462BD9C7
:10282800AB69A34228D92AB14FF0FF322846FFF7F7
:10283800CFFE38B921463068FFF795FF2746044692
:1028480008B90020F8BD012816D0431C16D0002274
:1028580039462846FFF7BCFE0028F3D1D5E90532F2
:10286800911E8B4205D201336B612B7943F0010332
:102878002B71A242DED8E4E70220E3E70120E1E77A
:102888002DE9F041056880460F4671B92E69EEB111
:10289800AB699E4228BF01263446AB690134A34286
:1028A80017D8012E14D1002406E02846FFF75BFF55
:1028B8000128044603D801242046BDE8F081431CC2
:1028C80030D0AB698342F7D83E46E5E70126E3E717
:1028D8000224D8F800002146FFF745FF30B101284F
:1028E800E9D001301ED0B442D7D1DCE74FF0FF3237
:1028F80021462846FFF76CFE90B957B9D5E905324D
:10290800023A93422C6110D92B7943F001032B71C1
:10291800D2E7224639462846FFF75AFE0028EDD06E
:102928000128C8D14FF0FF34C6E7013B6B61EBE7E4
:1029380043692DE9F04703F12008C36905468A4633
:102948008BB1B8F5001F0ED2C8F308070468002F32
:102958004FD181690133C36141B92389B3EB581F52
:1029680047D80023EB610420BDE8F087B4F80A904B
:1029780009F1FF3919EA58293BD12046FFF7F3FE40
:102988000128064601D80220EEE7421C01D10120A9
:10299800EAE7A369834226D8BAF1000FE1D0A96912
:1029A8002846FFF76DFF0646002835D00128EAD0F3
:1029B800431CECD02046FFF750FC01460028E6D126
:1029C80004F134004FF40072FFF74AFB3146204609
:1029D800FFF7E6FB4FF0010A6389206399450FD39F
:1029E800A0EB09002063AE6131462046FFF7D8FB13
:1029F800E86134343C44C5F814802C620020B3E705
:102A080084F803A02046FFF728FC0028BFD1206BDC
:102A180009F101090130DFE70720A5E7B1F5001F3B
:102A2800F8B5056806460C4601D30220F8BDCA066B
:102A3800FBD182684161BAB92B78022B01D9AB6A04
:102A48009BB92B89B3EB541FEFD9A86AC6E90620B6
:102A58000028EAD000EB54203435C4F30804254498
:102A6800F06135620020E1E713466F891A467F025C
:102A7800BC42114603D22846FFF792FBE6E73068CE
:102A8800FFF771FE431C024606D00128CDD9AB6979
:102A98008342CAD9E41BEBE70120C7E72DE9F04FD1
:102AA80085B00368009300210446FFF7B7FF064688
:102AB800002840F096804FF0FF3A4FF0FF08C4F826
:102AC80030A0C146E1690098FFF701FC06460028DE
:102AD80040F08780256A2F78002F00F08680EA7AF8
:102AE800E52F02F03F03A37103D0100704D50F2B85
:102AF80004D0C4F830A04EE00F2B54D194F82F30F6
:102B080059063ED47A0644D5636995F80D80236347
:102B180007F0BF076B7B43453DD16B8B002B3AD148
:102B28002E78009BDFF8CC90D3F80CB006F03F0667
:102B3800013E0D235E43012219F8013BEB5A6AB3AB
:102B4800FE2E28D81846039300F07CFE711C0290D4
:102B58003BF81600019100F075FE029A82421AD1E4
:102B6800039B01991A460E46214B4B45E4D12B781D
:102B78005B0603D512B13BF8163063B9013F5FFA23
:102B880087F900212046FFF7D3FE0646002899D092
:102B980027E0B945BED04FF0FF09F2E74FF6FF71C5
:102BA8008B42E1D0F7E7B9F1000F04D12846FFF7CF
:102BB80013FB404515D094F82F6016F0010698D104
:102BC80004F1240205F10B0115F8013B12F8010B81
:102BD8008D42A3EB000302D0002BF5D089E7002B30
:102BE80087D1304605B0BDE8F08F0426F9E700BF6D
:102BF80096390008893900082DE9F04F90F82F40E0
:102C080014F0A00489B0054640F035810668F268E2
:102C180032F81430002B69D105F124070C2239460B
:102C280005A8FFF73FFB9DF81FB01BF0010F78D0F8
:102C38004023DFF848A285F82F304FF001080B2217
:102C480005A93846D6F80C90FFF72CFBB8F1050F0C
:102C58005DD9A9F10201434631F8022F002A47D174
:102C680005A8072203F00F0C0CF13001392988BFA1
:102C78000CF137010F2B00F8011D02F1FF324FEA6A
:102C8800131146D802F120036B447E2103F8141C6B
:102C980005F12301084600239A4206D010F801CF17
:102CA800BCF1200F03F1010E35D1072A9EBF02F1B6
:102CB800180002F12000684403F1010396BF10F8E0
:102CC800140C20200132072BC854EED92846FFF7F0
:102CD800E5FE814608BB08F10108B8F1640FAED1E2
:102CE8004FF00709484609B0BDE8F08F01348FE777
:102CF800102002F0010C0CEB430313F4803F18BFC3
:102D080083EA0A0301384FEA5202F2D1A4E74346A4
:102D1800A6E70B46A6E77346BEE70428E2D185F886
:102D28002FB01BF0020F18BF0C344FF000012846DB
:102D380018BF0D23D5F800A016BFB4FBF3F4012487
:102D48000134FFF76BFE8146002840F08F808046F3
:102D5800E9695046FFF7BBFA8146002840F08680B3
:102D68002B6A1B78E52B01D0002B76D108F10108DE
:102D7800444573D1013C55D069692846A1EB4411FB
:102D8800FFF74CFE81460028ACD13846FFF724FAFD
:102D98004FF6FF780190E9693046FFF798FA8146C7
:102DA80000289FD12B6A019AD6F80CE05A73E1B239
:102DB8004FF00F024FF00D0CDA72DFF8C4A0187351
:102DC8004A1E0CFB02F29876D87684461AF8019BC4
:102DD800404518BF3EF8120003F8090003EB090B41
:102DE8000CF1010C18BF01324FEA1029002808BF66
:102DF8004046BCF10D0F8BF80190E7D1404502D059
:102E08003EF812200AB941F0400119700123F3700D
:102E180000212846FFF78CFD814600287FF462AF29
:102E2800013CB8D1E9693046FFF751FA81460028DC
:102E38007FF458AF01462022286AFFF711F90B22C8
:102E4800286A3946FFF72EFA95F82F302A6A03F0D8
:102E5800180313730123F37044E7804601212846C1
:102E6800FFF766FD814600283FF472AFB9F1040F01
:102E78003FF436AF36E74FF0060933E7211001007B
:102E8800893900082DE9F04F85B00368019306469B
:102E9800884611F8013B2F2BFAD05C2BF8D04FF065
:102EA800000AC6F808A098F800301F2B00F2B3807B
:102EB80080235146304686F82F3005B0BDE8F04FE4
:102EC800FFF7ACBD0135BAE0B5F5807FCDE9022347
:102ED8000ED00121204600F099FC48B17F28DDE999
:102EE800022307D87F4C14F8011B19B18842FAD184
:102EF80006204AE023F8020F2F4695E03BF81730EA
:102F0800202B02D02E2B40F0A680013FA0E00131FB
:102F1800ADE09B4504D2BA4246D10B2B3DD101E02E
:102F28000B2B35D144F003040B2396F82420E52A13
:102F380004BF052286F82420082B04BFAD00EDB29B
:102F480005F00C030C2B03D005F00302032A01D172
:102F580044F00204A10709D405F00305012D08BFB8
:102F680044F01004042B08BF44F0080486F82F40EE
:102F78003046FFF793FD96F82F3000283AD0042802
:102F880003D113F0040F08BF052005B0BDE8F08F8A
:102F9800BA4202D044F00304C7D8AD00EDB23A46B5
:102FA8000B234FF0080B8CE07F280ED90021CDE9C8
:102FB800022300F02BFC44F00204DDE9022360B197
:102FC8004949014411F8800C38B1DFF820C11CF8D8
:102FD800011B002979D08142F9D144F003045F2014
:102FE80006EB0B010BF1010B81F8240069E045F0B9
:102FF8000205F5E75A07C8D4B379DB0663D5019B08
:1030080003F134017369C3F308031944019B187869
:10301800FFF7A1FBB0603368D3F80C90A9F1020B5D
:1030280008F1FF325B46002712F8014F1F2C07F109
:1030380001050CD92F2C02D05C2C7FF445AF18F871
:1030480005302F2B3FF43EAF5C2B3FF43BAFA84439
:10305800002F7FF453AF29F817A0002F3FF448AF93
:1030680020210B2206F12400FEF7FAFF002139F88F
:103078001130202B3FF44BAF2E2B3FF448AF1F2CC1
:103088008CBF00240124A40009B144F003043BF8D8
:1030980017302E2B01D0013FF9D14FF0000B082338
:1030A8005D4639F811004A1C00283FF43EAF20283D
:1030B80005D02E287FF42DAFBA423FF42AAF44F052
:1030C80003041146EDE705205FE7A0F14101192946
:1030D8008DD9A0F1610119299EBF203845F001055D
:1030E80080B27DE7793900089639000882390008EE
:1030F8007FB5CDE9001003A815460391FFF77BF8CB
:10310800041E19DB0D4E56F8240018B1FFF738F8E5
:1031180000230370019B23B946F82430002004B033
:1031280070BD0022012D46F824301A70F6D101A98D
:103138006846FFF721F9F2E70B20F0E7EC050020DD
:103148002DE9F04391B0904601910446002800F023
:10315800F38002F03F06324602A901A8FFF70CF9F6
:103168000746002870D1029D0199039503A8FFF72F
:1031780089FE58B99DF93B30002B6CDB18F03E0FE7
:1031880014BF0121002103A8FEF770FF18F01C0FDF
:1031980072D0002866D0042856D1684900231A0145
:1031A8008A58002A59D103A8FFF726FD00284BD1D9
:1031B80046F008063007DDF82C8035D5FEF7E4FB2D
:1031C8000246014608F10E00FEF742FF114608F1DB
:1031D8001600FEF73DFF202388F80B30414628787B
:1031E800FFF7B9FA002280462846FFF764F8002264
:1031F80001230A774A778A77CA77EB70B8F1000F0C
:103208000ED0414603A8D5F83090FFF702FBD8B995
:1032180049462846FFF75BF808F1FF332B6198B958
:10322800300748BF46F040062B6BDDF82C80636200
:10323800012EC4F8288094BF0021012103A8FEF7BD
:1032480043FF206128BB022000232360074638463D
:1032580011B0BDE8F083062098E70133052B9ED115
:103268001220F1E79DF8123013F0110F0FD118F06A
:10327800040F9FD00820E7E70028E5D19DF8123019
:10328800DA0657D418F0020FCAD0DB07C8D50720D2
:10329800DAE728784146FFF75EFAA06008F11C00DB
:1032A800FEF7D4FE0023EA88E06004F13008A2802B
:1032B800E3624FF400722560267563752362A3618B
:1032C80019464046FEF7CCFEB206C0D5E668002E89
:1032D800BDD06A89A168A661B6EB422F4FEA4229A0
:1032E8000BD92068FFF73FFA01280146A6EB09062B
:1032F8001CD9431C1CD04E45F3D80020E16100289E
:10330800A2D1C6F30803002BA1D02846FEF748FF38
:10331800002898D000EB56222262687801234146A3
:10332800FEF76AFE002892D001208DE70220E5E72B
:103338000120E3E7042087E7092788E798050020AC
:103348002DE9F04F9A4685B000238846CAF8003028
:1033580003A904461646FEF766FF054668BB657D69
:103368005DBB237D9A0740F1B480A369F34228BF6F
:10337800DE4304F130030093DEB1A169C1F3080311
:10338800002B40F09380DDF80C90B9F80A70013FEB
:1033980017EA512724D131B9A068A0B901462046BF
:1033A800FFF76EFA04E0E36A5BB12046FEF703FF1D
:1033B80048B9237D43F040032375284605B0BDE88E
:1033C800F08FE169EBE7012802D102256575F4E782
:1033D800431C01D10125F9E7A368E06103B9A060A6
:1033E80094F91430002B0DDA226A99F801000123B0
:1033F80004F13001FEF70EFE0028EBD1237D03F027
:103408007F032375E1694846FEF7CAFE0028DCD031
:10341800B6F5007F07EB000B35D3B9F80A1007EBB8
:10342800562088424FEA562399F8010088BFCB1BE3
:103438005A4641460193FEF7EDFD0028CAD1216A9C
:10344800019BA1EB0B0199420CD24FF4007208EBDF
:10345800412104F13000FEF725FF227D019B02F097
:103468007F0222755F02A369E2683B44A3619A4226
:103478002CBFE260E360DAF800303B44B844CAF895
:103488000030F61B78E7216AA36959450CD0E1683A
:10349800994209D999F8010001235A4604F13001EB
:1034A800FEF7AAFD002895D1C4F820B0A069009BBA
:1034B800C0F30800C0F50077B74228BF3746184464
:1034C8003A464146FEF7EEFE237D63F07F032375FF
:1034D800C9E7072571E72DE9F34101A90546FEF77C
:1034E800A2FE044600283BD12B7D13F0400437D0C0
:1034F8001B06019F0BD52A6A7878012305F1300154
:10350800FEF788FD80BB2B7D03F07F032B75FEF74C
:103518003BFA696A80463846FEF7D9FE0446F8B990
:10352800AE6AF37A43F02003F372AA68286831463A
:10353800FEF7C1FEE96806F11C00FEF789FD414669
:1035480006F11600FEF784FD0123B474F4743846BE
:10355800FB70FFF7B5F82B7D23F0400304462B756D
:10356800204602B0BDE8F0810124F9E713B504460E
:10357800FFF7B1FF48B901A92046FEF754FE20B96C
:103588002069FEF7DFFD00B9206002B010BD2DE90B
:10359800F74F0D4601A90446FEF745FE0646E8B971
:1035A800667DDEB9E36A002B7BD06A1C39D11D46E3
:1035B800D4F8088055F804BB0227B8F1000F28D0CA
:1035C80040464FF0000A014681462068FFF7CBF8D5
:1035D80001280AF1010A07D802266675304603B0A9
:1035E800BDE8F08F8046EBE7431C01D10126F4E7E4
:1035F80009F101098145E6D00237BB4521BF2B46B9
:1036080043F808ABC5F804801D46019B9B698342BB
:10361800E8D8E36A5F451F6000F2D28000232B6080
:10362800DCE7E768AF4228BF2F46A761002FD5D057
:1036380007F1FF3949462046FEF7BDFDDDF8048055
:10364800E06101464046FEF7ABFD0028C4D0C7F351
:103658000807B8F80A50002FC0D0013D226A05EAD1
:1036680059250544AA42B9D094F9143098F80100B4
:10367800002B04F1300709DA01233946FEF7CAFCAA
:103688000028B3D1237D03F07F03237598F8010048
:1036980001232A463946FEF7AFFC0028A6D1256249
:1036A8009CE7E368AB4204D2227D12F0020F08BF08
:1036B8001D460022A369A26155BB0025E268A369E3
:1036C800934282BF227DE36042F04002C3F30803C5
:1036D80088BF2275002B81D0226AAA423FF47EAFB0
:1036E80094F91430019F002B787804F130080ADA35
:1036F80001234146FEF78EFC00287FF477AF237D37
:1037080003F07F032375787801232A464146C2E7F0
:10371800019FB7F80A804FEA482813B3013B6A1E95
:10372800B3FBF8F1B2FBF8F28A421AD3C8F10002EF
:103738001340E169A361ED1A0029BED04545A3698C
:103748001ED8A3692B44A361C5F30803002BB4D08A
:103758003846FEF725FD00283FF43EAF00EB55251F
:10376800ACE7A16851B92046FFF78AF8012801465D
:103778003FF432AF481C3FF439AFA160E161DBE7A9
:103788004344A361237D9A07A5EB080906D5204683
:10379800FFF776F8054628B90146D2E72068FEF714
:1037A800E2FF05466B1C3FF421AF012D7FF614AFF5
:1037B800BB69AB427FF610AFE56129464D46BDE7D0
:1037C80011260BE730B50E4B5C7A054604F0FF0076
:1037D800A4B95C7A18555C7A03EB840465605C7A5A
:1037E8001C4422725A7A541CE4B25C723A23303276
:1037F8004B702F230A708B70C87030BD0120FCE716
:10380800F00500200022FFF7DDBF00007F2815D952
:1038180031B1FF2811D80A4B803833F810007047AF
:10382800074B33F8022B824205D001318029F8D1A9
:103838008031C8B2704789B2FAE70020704700BFEC
:10384800C43C000870B51E4B1E4AB0F5805F28BF07
:103858001346191D31F8043C0A46ABB1984213D3FC
:1038680031F8024C250AE6B253FA84F4A04221DA70
:10387800082D09D8DFE805F005090F1113151719E8
:103888001B00C01A31F8100070BDC31A03F0010301
:10389800C01A80B2F8E71038FBE72038F9E730386B
:1038A800F7E71A38F5E70830F3E75038F1E7A0F5FD
:1038B800E350EEE70431002DCCD102EB4603C8E714
:1038C800D23A0008163A000802440346934200D14F
:1038D800704703F8011BF9E770B50D4D0D4C641BDB
:1038E800A4100026A64209D10B4D0C4C00F018F884
:1038F800641BA4100026A64205D170BD55F8043BF0
:1039080098470136EEE755F8043B98470136F2E749
:10391800CC3D0008CC3D0008CC3D0008D03D000857
:10392800F8B500BFF8BC08BC9E467047F8B500BFA4
:08393800F8BC08BC9E46704774
:103940006C6F67732E7478740033302D30382D32DD
:1039500030323420566F6C7461676520332E3356D5
:103960000000000000000000000102030406070838
:10397000090006101600061016222A3A3C3E3F7C2B
:103980007F002B2C3B3D5B5D0001030507090E10FA
:10399000121416181C1E808182838485868788896C
:1039A0008A8B8C8D8E8F90919293949596979899FF
:1039B0009A9B9C9D9E9F808182838485868788892F
:1039C0008A8B8C8D8E8FB0B1B2B3B4B5B6B7B8B99F
:1039D000BABBBCBDBEBFC0C1C2C3C4C5C6C7C8C9CF
:1039E000CACBCCCDCECFD0D1D2D3D4D5D6D7D8D9BF
:1039F000DADBDCDDDEDF90919293949596979899CF
:103A00009A9B9C9D9E9FF0F0F2F2F4F4F6F6F8F982
:103A1000FAFBFCFDFEFF7D1D0100632C001E9601DC
:103A2000A01E5A01001F0806101F0606201F0806C8
:103A3000301F0806401F0606511F0700591F521F5E
:103A40005B1F541F5D1F561F5F1F601F0806701FFE
:103A50000E00BA1FBB1FC81FC91FCA1FCB1FDA1F0A
:103A6000DB1FF81FF91FEA1FEB1FFA1FFB1F801F48
:103A70000806901F0806A01F0806B01F0400B81F04
:103A8000B91FB21FBC1FCC1F0100C31FD01F0206ED
:103A9000E01F0206E51F0100EC1FF21F0100FC1FE2
:103AA0004E21010032217021100284210100832166
:103AB000D0241A05302C2F04602C0201672C06013B
:103AC000752C0201802C6401002D260841FF1A0389
:103AD000000061001A03E0001703F8000703FF006D
:103AE00001007801000130013201060139011001A5
:103AF0004A012E017901060180014D004302810136
:103B00008201820184018401860187018701890184
:103B10008A018B018B018D018E018F019001910132
:103B2000910193019401F601960197019801980182
:103B30003D029B019C019D0120029F01A001A0016B
:103B4000A201A201A401A401A601A701A701A90144
:103B5000AA01AB01AC01AC01AE01AF01AF01B101F3
:103B6000B201B301B301B501B501B701B801B801A4
:103B7000BA01BB01BC01BC01BE01F701C001C1011A
:103B8000C201C301C401C501C401C701C801C70105
:103B9000CA01CB01CA01CD011001DD0101008E0176
:103BA000DE011201F3010300F101F401F401F80157
:103BB0002801220212013A020900652C3B023B0255
:103BC0003D02662C3F0240024102410246020A01C8
:103BD0005302400081018601550289018A01580281
:103BE0008F015A0290015C025D025E025F02930146
:103BF0006102620294016402650266026702970133
:103C000096016A02622C6C026D026E029C017002C7
:103C100071029D01730274029F017602770278029D
:103C200079027A027B027C02642C7E027F02A6016A
:103C300081028202A9018402850286028702AE0106
:103C40004402B101B20145028D028E028F02900240
:103C50009102B7017B030300FD03FE03FF03AC03E6
:103C600004008603880389038A03B1031103C20396
:103C70000200A303A303C4030803CC0303008C03C3
:103C80008E038F03D8031801F2030A00F903F3032C
:103C9000F403F503F603F703F703F903FA03FA0352
:103CA0003004200350041007600422018A04360106
:103CB000C1040E01CF040100C004D0044401610519
:103CC0002604000010041104120413041404150443
:103CD00016041704180419041A041B041C041D04F8
:103CE0001E041F04200421042204230424042504A8
:103CF00026042704280429042A042B042C042D0458
:103D00002E042F0430043104320433043404350407
:103D100036043704380439043A043B043C043D04B7
:103D20003E043F04912592259325022524256125F3
:103D30006225562555256325512557255D255C258A
:103D40005B251025142534252C251C2500253C2514
:103D50005E255F255A255425692566256025502551
:103D60006C25672568256425652559255825522524
:103D700053256B256A2518250C25882584258C2537
:103D80009025802540044104420443044404450432
:103D900046044704480449044A044B044C044D04B7
:103DA0004E044F040104510404045404070457044E
:103DB0000E045E04B0001922B7001A221621A400D6
:043DC000A025A0009A
:083DC40044C4FF7F0100000070
:043DCC00BD0100082D
:043DD000990100084D
:103DD4000024F40001000000100000009519000800
:103DE400991900089D190008A1190008A5190008CF
:043DF40001000000CA
:04000005080008994E
:00000001FF
